:020000040800F2
:1000000000000120292B0008792B0008792B00081B
:10001000792B0008792B0008792B000800000000DC
:10002000000000000000000000000000792B000824
:10003000792B000800000000792B00083922000805
:1000400000000000792B0008792B0008792B0008AC
:10005000792B0008792B0008792B0008792B0008F0
:10006000792B0008792B0008792B0008792B0008E0
:10007000792B0008792B0008792B0008792B0008D0
:10008000792B0008792B0008792B0008000000006C
:10009000000000000000000000000000792B0008B4
:1000A000792B0008792B0008792B0008792B0008A0
:1000B000792B0008792B0008792B0008792B000890
:1000C000792B0008792B0008792B0008792B000880
:1000D000792B0008C52A0008E12A0008000000006A
:1000E000792B0008792B0008792B0008000000000C
:1000F000000000000000000000000000792B000854
:1001000000000000792B0008792B0008792B0008EB
:1001100000000000000000000000000000000000DF
:10012000792B0008792B0008792B0008792B00081F
:10013000792B000800000000000000000000000013
:10014000000000000000000000000000792B000803
:10015000792B0008792B0008792B0008FD2A00086C
:10016000792B0008792B0008000000000000000037
:10017000000000000000000000000000000000007F
:10018000000000000000000000000000000000006F
:04019000792B0008BF
:1001980010B5054C237833B9044B13B10448AFF3B9
:1001A80000800123237010BD3C00002000000000E7
:1001B800E02B000808B5034B1BB103490348AFF314
:1001C800008008BD0000000040000020E02B00086F
:1001D80081F0004102E000BF83F0004330B54FEAF0
:1001E80041044FEA430594EA050F08BF90EA020F5D
:1001F8001FBF54EA000C55EA020C7FEA645C7FEAF0
:10020800655C00F0E2804FEA5454D4EB5555B8BF12
:100218006D420CDD2C4480EA020281EA030382EA83
:10022800000083EA010180EA020281EA0303362D15
:1002380088BF30BD11F0004F4FEA01314FF4801CE8
:100248004CEA113102D0404261EB410113F0004FFA
:100258004FEA03334CEA133302D0524263EB4303B1
:1002680094EA050F00F0A780A4F10104D5F1200E4F
:100278000DDB02FA0EFC22FA05F2801841F10001AA
:1002880003FA0EF2801843FA05F359410EE0A5F17E
:1002980020050EF1200E012A03FA0EFC28BF4CF0AF
:1002A800020C43FA05F3C01851EBE37101F0004565
:1002B80007D54FF0000EDCF1000C7EEB00006EEB72
:1002C8000101B1F5801F1BD3B1F5001F0CD34908FC
:1002D8005FEA30004FEA3C0C04F101044FEA445253
:1002E80012F5800F80F09A80BCF1004F08BF5FEADA
:1002F800500C50F1000041EB045141EA050130BDBA
:100308005FEA4C0C404141EB0101013C28BFB1F5CB
:10031800801FE9D291F0000F04BF01460020B1FA16
:1003280081F308BF2033A3F10B03B3F120020CDAE9
:100338000C3208DD02F1140CC2F10C0201FA0CF0C7
:1003480021FA02F10CE002F11402D8BFC2F1200C2C
:1003580001FA02F120FA0CFCDCBF41EA0C019040E2
:10036800E41AA2BF01EB0451294330BD6FEA04042B
:100378001F3C1CDA0C340EDC04F11404C4F1200216
:1003880020FA04F001FA02F340EA030021FA04F328
:1003980045EA030130BDC4F10C04C4F1200220FA7F
:1003A80002F001FA04F340EA0300294630BD21FABD
:1003B80004F0294630BD94F0000F83F4801306BF83
:1003C80081F480110134013D4EE77FEA645C18BF77
:1003D8007FEA655C29D094EA050F08BF90EA020F0E
:1003E80005D054EA000C04BF1946104630BD91EA06
:1003F800030F1EBF0021002030BD5FEA545C05D109
:100408004000494128BF41F0004130BD14F5800447
:100418003CBF01F5801130BD01F0004545F0FE41BB
:1004280041F470014FF0000030BD7FEA645C1ABFF0
:10043800194610467FEA655C1CBF0B46024650EA27
:10044800013406BF52EA033591EA030F41F4002153
:1004580030BD00BF90F0000F04BF0021704730B5D9
:100468004FF4806404F132044FF000054FF00001AE
:1004780050E700BF90F0000F04BF0021704730B56F
:100488004FF4806404F1320410F0004548BF404244
:100498004FF000013EE700BF42004FEAE2014FEA99
:1004A80031014FEA02701FBF12F07F4393F07F4F74
:1004B80081F06051704732F07F4208BF704793F077
:1004C8007F4F04BF41F40021704730B54FF460748A
:1004D80001F0004521F000411CE700BF50EA01028D
:1004E80008BF704730B54FF000050AE050EA010236
:1004F80008BF704730B511F0004502D5404261EBA6
:1005080041014FF4806404F132045FEA915C3FF4E6
:10051800D8AE4FF003025FEADC0C18BF03325FEA83
:10052800DC0C18BF033202EBDC02C2F1200300FA34
:1005380003FC20FA02F001FA03FE40EA0E0021FA59
:1005480002F11444BDE600BF70B54FF0FF0C4CF447
:10055800E06C1CEA11541DBF1CEA135594EA0C0FF9
:1005680095EA0C0F00F0DEF82C4481EA030621EA34
:100578004C5123EA4C5350EA013518BF52EA03356F
:1005880041F4801143F4801338D0A0FB02CE4FF021
:100598000005E1FB02E506F00042E0FB03E54FF051
:1005A8000006E1FB03569CF0000F18BF4EF0010E49
:1005B800A4F1FF04B6F5007F64F5407404D25FEA45
:1005C8004E0E6D4146EB060642EAC62141EA5551F8
:1005D8004FEAC52040EA5E504FEACE2EB4F1FD0C3A
:1005E80088BFBCF5E06F1ED8BEF1004F08BF5FEAB8
:1005F800500E50F1000041EB045170BD06F000466A
:1006080046EA010140EA020081EA0301B4EB5C0416
:10061800C2BFD4EB0C0541EA045170BD41F480110E
:100628004FF0000E013C00F3AB8014F1360FDEBF33
:10063800002001F0004170BDC4F10004203C35DA0F
:100648000C341BDC04F11404C4F1200500FA05F392
:1006580020FA04F001FA05F240EA020001F0004233
:1006680021F0004110EBD37021FA04F642EB0601A9
:100678005EEA430E08BF20EAD37070BDC4F10C04D3
:10068800C4F1200500FA04F320FA05F001FA04F297
:1006980040EA020001F0004110EBD37041F1000183
:1006A8005EEA430E08BF20EAD37070BDC4F120058E
:1006B80000FA05F24EEA020E20FA04F301FA05F2F6
:1006C80043EA020321FA04F001F0004121FA04F29E
:1006D80020EA020000EBD3705EEA430E08BF20EA6E
:1006E800D37070BD94F0000F0FD101F000464000A8
:1006F80041EB010111F4801F08BF013CF7D041EA2A
:10070800060195F0000F18BF704703F0004652002D
:1007180043EB030313F4801F08BF013DF7D043EAFE
:100728000603704794EA0C0F0CEA135518BF95EAB4
:100738000C0F0CD050EA410618BF52EA4306D1D13B
:1007480081EA030101F000414FF0000070BD50EA5A
:10075800410606BF1046194652EA430619D094EAE4
:100768000C0F02D150EA013613D195EA0C0F05D1CE
:1007780052EA03361CBF104619460AD181EA030122
:1007880001F0004141F0FE4141F470014FF00000DA
:1007980070BD41F0FE4141F4780170BD70B54FF075
:1007A800FF0C4CF4E06C1CEA11541DBF1CEA1355F5
:1007B80094EA0C0F95EA0C0F00F0A7F8A4EB0504D7
:1007C80081EA030E52EA03354FEA013100F08880CE
:1007D8004FEA03334FF0805545EA131343EA126397
:1007E8004FEA022245EA111545EA10654FEA00264C
:1007F8000EF000419D4208BF964244F1FD0404F505
:10080800407402D25B084FEA3202B61A65EB030560
:100818005B084FEA32024FF480104FF4002CB6EB1D
:10082800020E75EB030E22BFB61A754640EA0C009D
:100838005B084FEA3202B6EB020E75EB030E22BFDD
:10084800B61A754640EA5C005B084FEA3202B6EB1E
:10085800020E75EB030E22BFB61A754640EA9C00DD
:100868005B084FEA3202B6EB020E75EB030E22BFAD
:10087800B61A754640EADC0055EA060E18D04FEA6B
:10088800051545EA16754FEA06164FEAC30343EA0B
:1008980052734FEAC2025FEA1C1CC0D111F4801FD8
:1008A8000BD141EA00014FF000004FF0004CB6E7D1
:1008B80011F4801F04BF01430020B4F1FD0C88BF70
:1008C800BCF5E06F3FF6AFAEB5EB030C04BFB6EB7B
:1008D800020C5FEA500C50F1000041EB045170BD6E
:1008E8000EF0004E4EEA113114EB5C04C2BFD4EB9B
:1008F8000C0541EA045170BD41F480114FF0000E1F
:10090800013C90E645EA060E8DE60CEA135594EA9A
:100918000C0F08BF95EA0C0F3FF43BAF94EA0C0F9D
:100928000AD150EA01347FF434AF95EA0C0F7FF412
:1009380025AF104619462CE795EA0C0F06D152EA66
:1009480003353FF4FDAE1046194622E750EA41064A
:1009580018BF52EA43067FF4C5AE50EA41047FF45B
:100968000DAF52EA43057FF4EBAE12E74A0011D20D
:1009780012F5001211D20DD56FF47873B3EB6252F1
:100988000ED44FEAC12343F0004343EA505323FAFD
:1009980002F070474FF00000704750EA013002D172
:1009A8004FF0FF3070474FF00000704780B582B0BD
:1009B80000AF78600B46FB70084AFB7813707868C4
:1009C80000F0E9FF0649074801F088F8064B0122C4
:1009D8001A7000BF0837BD4680BD00BF5800002010
:1009E800F82B0008001001405A00002080B582B0A2
:1009F80000AF786039603B68312B35D97E4B1A7867
:100A08007E4B1B789A422FD27D4B1B78002B1FD12F
:100A1800794B1B780533DAB2774B1A70764B1B7813
:100A2800184600F0F7FF7749774801F057F87749FB
:100A3800754801F053F8704B1B783033DBB2194618
:100A4800714801F039F872496F4801F047F8CEE073
:100A58006B4B1B78012B40F0CA80786800F09BFF35
:100A6800674B00221A70C2E03B68312B25D9624BD4
:100A78001A78624B1B789A421FD95F4B1B78053B4B
:100A8800DAB25D4B1A705C4B1B78184600F0C2FF57
:100A980060495D4801F022F85C495B4801F01EF8A6
:100AA800554B1B783033DBB21946574801F004F830
:100AB8005749554801F012F89AE03B68312B27D87E
:100AC8003B68132B24D94C4B1A784C4B1B789A4211
:100AD8001ED251494C4801F001F850494A4800F0EB
:100AE800FDFF454B1B783033DBB21946464800F012
:100AF800E3FF4749444800F0F1FF414B1B78012BC5
:100B080076D1786800F047FF3D4B00221A706FE0FD
:100B18003B68312B32D83B68132B2FD9364B1A78C8
:100B2800364B1B789A4229D9334B1B78053BDAB2EE
:100B3800314B1A70304B1B78184600F06BFF384960
:100B4800314800F0CBFF35492F4800F0C7FF2A4B4A
:100B58001B783033DBB219462B4800F0ADFF2C4927
:100B6800294800F0BBFF264B1B78012B40D1786841
:100B780000F011FF224B00221A7039E03B68132B5A
:100B880030D83B68002B2DD01B4B1B78002B1FD077
:100B9800194B1B780A3BDAB2174B1A70164B1B78A5
:100BA800184600F037FF1F49174800F097FF17490C
:100BB800154800F093FF104B1B783033DBB2194611
:100BC800114800F079FF12490F4800F087FF0FE045
:100BD800786800F0BFFE0A4B01221A70012000F06D
:100BE80019FF05E01049084800F078FF00E000BF51
:100BF80000BF0837BD4680BD5900002058000020BE
:100C08005A000020182C000800100140302C000861
:100C1800482C00084C2C0008642C00087C2C000888
:100C2800942C0008AC2C0008C02C000880B582B0B9
:100C380000AF78607B68002B05D0786800F08AFEEA
:100C4800012000F0E7FE00BF0837BD4680BD000068
:100C580080B483B000AF0346FB71FB792B2B02D025
:100C68002D2B07D00DE00B4B1B780A33DAB2094B5A
:100C78001A7006E0074B1B780A3BDAB2054B1A706C
:100C880000BF044B1B7818460C37BD465DF8047B43
:100C9800704700BF5800002080B500AF02490348E4
:100CA80000F01CFF00BF80BDD42C000800100140DC
:100CB80080B584B000AF786039600023FB737B682F
:100CC800002B0DD03B680A2B08D8012000F0A2FEAB
:100CD800786800F03FFE0123FB7301E00023FB73FB
:100CE800FB7B18461037BD4680BD000080B500AFBD
:100CF8000A4B5B68DAB20A4B1A70094B1B786D2BEA
:100D080009D10849084801F050FE084B01221A7021
:100D1800034B00221A7000BF80BD00BF0044004092
:100D28006F000020FC2C0008001001406D0000201E
:100D380080B500AF094B5B68DAB2094B1A70084BF3
:100D48001B78184600F012FA03461A46054B1A702B
:100D5800034B00221A7000BF80BD00BF0010014085
:100D68006E0000206100002080B58CB000AF01F05B
:100D7800D7F90021002001F0F9F90021022001F043
:100D8800F5F90121002001F0F1F90421032001F017
:100D9800EDF91121022001F0E9F90121022001F009
:100DA800E5F9322001F024FC002001F093F900233A
:100DB80001220021252001F02DF9252001F000F95C
:100DC800002302220021262001F024F9262001F028
:100DD800F7F8244A07F1240307CA83E80700224AE0
:100DE80007F1180307CA83E8070007F12403184628
:100DF80001F093F807F11803184601F08EF81B4923
:100E08001B4801F029FC1A4801F086FD0121184809
:100E180001F0F6FD174801F037FE174A07F10C03F9
:100E280007CA83E80700154A3B4607CA83E8070054
:100E380007F10C03184601F070F83B46184601F01C
:100E48006CF80F4A0F49104800F082FC0F4800F078
:100E5800F9FC0E4800F09FFD00F086FE00BF303719
:100E6800BD4680BD202D00082C2D00082400002040
:100E780000440040F50C0008382D0008442D0008F7
:100E8800390D00081000002000100140000000206B
:100E980080B582B000AF00F07DFE00F091FE034601
:100EA8009B4A136042F2107000F048FE984B1B6892
:100EB80019469848FFF7FCFE0346FB71FB79012BA6
:100EC80005D19549954800F009FE00F0A1FB944B27
:100ED8001B780A2BDFD801A252F823F0110F000863
:100EE800230F0008870F0008570F0008730F00082A
:100EF800430F0008A30F0008B90F0008310F0008BE
:100F0800E9100008CF0F0008844800F039FCFFF70B
:100F1800C3FE834B08221A70F8E0804800F06CFC8E
:100F28007F4B08221A70F1E07E4B1B78012B40F0B2
:100F3800E9807B4B04221A70E4E07B4B1B7818464F
:100F480000F0C8FA03461A46754B1A70DEE0774B74
:100F58001B7819466F48FFF729FD75496F4800F05F
:100F6800BDFD6F4B04221A70D0E0694B1B6819460F
:100F78006848FFF73BFD6A4B08221A70C6E06D4BC4
:100F88001B781946634800F08BFB6B49634800F0F7
:100F9800A5FD634B08221A70B8E05E4800F09EFB7E
:100FA80066495E4800F09AFD5D4B01221A70ADE07B
:100FB8005848FFF73BFE6249584800F08FFD584BF0
:100FC80001221A70A2E05F4B1B78012B41D1594BCB
:100FD8001A785D4B1B789A4203D25C4B1B78012B25
:100FE80009D0544B1A785A4B1B789A4224D9594B3A
:100FF8001B78012B20D1554B1B78012B0AD12B20B4
:1010080000F07AFB03461A464A4B1A704F4B0022EF
:101018001A700DE04F4B1B78012B09D12D2000F0E1
:101028006BFB03461A46434B1A704A4B00221A7050
:101038003B4B08221A7052E0444B00221A70454B71
:1010480000221A70384B07221A70354B05221A7085
:101058005AE0344B1B78012B56D1344B1A783A4B53
:101068001B789A4203D2394B1B78012B09D02F4B9E
:101078001A78374B1B789A4224D9364B1B78012BA8
:1010880020D1324B1B78012B0AD12B20FFF7E0FD32
:1010980003461A46254B1A702C4B00221A700DE095
:1010A8002C4B1B78012B09D12D20FFF7D1FD0346CE
:1010B8001A461E4B1A70274B00221A70184B08222A
:1010C8001A700CE0214B00221A70224B00221A7071
:1010D800154B07221A70124B05221A7014E013E000
:1010E8001D490E4801F061FC1C4B00221A70712149
:1010F8001B4801F05AFC1B4B1B4A1A60194B1B6812
:10110800984703E000BFC6E600BFC4E6C3E600BFD9
:101118006400002000000020502D0008001001404D
:10112800610000206C0000206000002039000020D1
:10113800782D00083A0000209C2D0008C02D0008DA
:10114800D42D00086B000020380000206800002023
:101158006200002069000020E82D00086D000020D2
:10116800004400405C0000200400000880B584B002
:1011780000AF0346FB71FB797A2B00F39381612B57
:1011880006DA2B2B00F043812D2B00F0408189E1FA
:10119800613B192B00F2868101A252F823F000BFAF
:1011A8008D120008AD140008AD140008AD14000835
:1011B800AD140008AD140008AD140008AD14000803
:1011C800AD140008C113000831130008AD1400085D
:1011D800AD1400083B12000811120008AD140008F5
:1011E800AD140008AD140008DF120008AD140008A3
:1011F800AD140008AD140008AD140008AD140008C3
:10120800AD140008791300089F4B1B78002B05D1FB
:101218009D4B01221A700123FB7349E19A4B1B78FD
:10122800012B40F04581994B01221A700523FB736D
:101238003EE1974B1B78002B19D1934B1B78012B60
:101248000FD1944B1B78002B05D1914B01221A70BA
:101258000223FB732EE18D4B03221A700523FB73C7
:1012680028E18A4B04221A700523FB732DE1884B71
:101278001B78012B40F01E81844B02221A70052333
:10128800FB7317E1834B1B78002B19D17E4B1B781E
:10129800012B0FD17E4B1B78002B05D17D4B0122F2
:1012A8001A700323FB7307E1784B02221A70052397
:1012B800FB7301E1754B04221A700523FB7304E1EB
:1012C800744B1B78012B40F0F780704B03221A7087
:1012D8000523FB73F0E06C4B1B78012B19D16C4B89
:1012E8001B78002B0FD16B4B1B78002B05D1664B5D
:1012F80000221A700023FB73E0E0644B03221A708B
:101308000523FB73DAE0614B02221A700523FB7395
:10131800D4E05D4B1B78002B40F0D0805B4B04225F
:101328001A700523FB73C9E0574B1B78012B14D1A6
:10133800574B1B78012B05D1554B00221A700623F9
:10134800FB73BDE0524B1B78002B40F0B9804F4B2C
:1013580006221A700523FB73B2E04B4B1B78002B57
:1013680040F0AE80494B04221A700523FB73A7E0B6
:10137800454B1B78012B14D1464B1B78012B05D10B
:10138800444B00221A700723FB739BE0414B1B78E8
:10139800002B40F097803D4B05221A700523FB7304
:1013A80090E0394B1B78002B40F08C80374B04229F
:1013B8001A700523FB7385E0334B1B78002B20D173
:1013C800344B1B78002B16D1314B1B78002B0CD1DA
:1013D800314B1B78012B02D10923FB7375E02B4B92
:1013E80009221A700523FB736FE0284B02221A703A
:1013F8000523FB7369E0254B03221A700523FB7351
:1014080063E0224B01221A700523FB735DE01E4B3B
:101418001B78012B2DD11E4B1B78002B19D11D4B8E
:101428001B78002B05D1194B08221A700523FB7372
:101438004AE0FB792B2B03D1184B01221A7005E0E7
:10144800FB792D2B02D1164B01221A700A23FB734C
:101458003AE0FB792B2B03D1104B01221A7005E0DF
:10146800FB792D2B02D10E4B01221A700A23FB7334
:101478002AE0054B1B78002B26D1044B04221A7056
:101488000523FB7320E000BF6A00002060000020F5
:101498006B0000206C0000206D0000206800002018
:1014A80069000020232000F015F80346FB730CE0C8
:1014B80000BF0AE000BF08E000BF06E000BF04E08C
:1014C80000BF02E000BF00E000BFFB7B18461037FA
:1014D800BD4680BD80B584B000AF0346FB71FB7983
:1014E800013B082B5ED801A252F823F01915000819
:1014F8002715000835150008431500085F15000872
:10150800511500086D150008911500089F15000871
:101518003149324800F0E2FA0823FB7357E03049BA
:101528002E4800F0DBFA0823FB7350E02D492B48C6
:1015380000F0D4FA0423FB7349E02B49274800F054
:10154800CDFA0023FB7342E02849244800F0C6FA8C
:101558000823FB733BE02649204800F0BFFA082324
:10156800FB7334E023491D4800F0B8FA224B1B787E
:10157800012B02D10823FB7326E0204B1B78012B9B
:1015880022D10323FB731FE01D49144800F0A6FA7B
:101598000823FB731BE01B49104800F09FFA002347
:1015A800FB7314E018490D4800F098FA174B1B78A4
:1015B800012B02D10823FB7308E0144B1B78002B86
:1015C80004D10023FB7301E000BF00E000BFFB7BF8
:1015D80018461037BD4680BD0C2E0008001001408B
:1015E8002C2E0008502E0008742E0008942E000897
:1015F800B42E0008D42E00086B0000206C000020D8
:10160800102F00084C2F0008882F00086A000020BF
:1016180080B582B000AF1A491A4800F05FFA1A4B39
:1016280000221A70194B00221A70194B1B681946B0
:101638001848FFF73DFB0346FB7112E000F0AAFAD9
:1016480000F0BEFA0346124A136042F2107000F02E
:1016580075FA0F4B1B6819460E48FFF729FB03461E
:10166800FB71FB79012BE9D00B49064800F036FAEB
:101678000A4B01221A7000BF0837BD4680BD00BF63
:10168800A42F0008001001406C0000206B0000200F
:101698006400002000000020D82F0008610000200E
:1016A80080B582B000AF78600B46FB70084AFB78C3
:1016B8001370FB78184600F0ADF9786800F06BF904
:1016C8000449054800F00AFA00BF0837BD4680BD46
:1016D800700000200C3000080010014080B582B076
:1016E80000AF7860012000F095F9786800F032F9D1
:1016F80000BF0837BD4680BD80B582B000AF034645
:10170800FB71FB792B2B02D02D2B0CD017E00F4B44
:101718001B780A33DAB20D4B1A700C4B1B7818463B
:1017280000F078F90BE0094B1B780A3BDAB2074B5B
:101738001A70064B1B78184600F06CF900BF034B73
:101748001B7818460837BD4680BD00BF70000020D2
:1017580080B584B000AFF860B9607A60B968F8689D
:1017680000F08CF9F86800F099F90121F86800F0A8
:10177800C5F9786800F0D4F900BF1037BD4680BDC0
:1017880080B5FAB000AF07F5F473A3F5F2731860EB
:1017980007F5F473A3F59273154A1846114640F2FB
:1017A80021131A4601F00AFA07F5F473A3F5EE734C
:1017B800104A18461146B5231A4601F0FFF907F1F9
:1017C800C40207F5F473A3F5F2731146186800F024
:1017D80085F907F10C0207F5F473A3F5F2731146C6
:1017E800186800F07BF900BF07F5F477BD4680BDA7
:1017F800243000084831000880B5D4B000AF07F5A0
:10180800A873A3F5A673186007F5A873A3F5A273C8
:101818000B4A184611464FF4A2731A4601F0CEF946
:1018280007F10C0207F5A873A3F5A673114618680B
:1018380000F054F900BF07F5A877BD4680BD00BF8A
:101848000032000880B590B000AF78607B68002B4C
:1018580003D1012387F83F3076E07B689B7B002B20
:101868003AD17B681B683B637B681B7987F8343007
:10187800012387F83530002387F83630022387F8AC
:1018880037307B685B7B87F83830002387F839303E
:1018980007F13003184600F0ECFA7B689B687B621E
:1018A8007B681B7B87F82830012387F829300023C1
:1018B80087F82A30022387F82B30002387F82C304A
:1018C800002387F82D3007F12403184600F0D1FAD9
:1018D800002387F83F3037E07B689B7B012B30D1B2
:1018E8007B681B68BB617B681B793B7701237B772F
:1018F8000023BB770223FB77002387F820300023DF
:1019080087F8213007F11803184600F0B2FA7B680F
:101918009B68FB607B681B7B3B7401237B74002303
:10192800BB740223FB747B685B7B3B7500237B7570
:1019380007F10C03184600F09CFA002387F83F30A3
:1019480002E0012387F83F3097F83F3018464037C8
:10195800BD4680BD80B584B000AF78607B68002B41
:1019680002D10123FB7311E07B6818687B681B793F
:101978000022194600F00CFA7B6898687B681B7B8C
:101988000022194600F004FA0023FB73FB7B18467B
:101998001037BD4680BD80B584B000AF78607B68E5
:1019A800002B02D10123FB732FE07B689B7B002B6C
:1019B80012D17B6818687B681B790122194600F0F0
:1019C800E7F97B6898687B681B7B0022194600F062
:1019D800DFF90023FB7318E07B689B7B012B12D196
:1019E8007B6818687B681B790022194600F0D0F9DB
:1019F8007B6898687B681B7B0122194600F0C8F950
:101A08000023FB7301E00123FB73FB7B18461037AF
:101A1800BD4680BD80B586B000AF0346FB71164A4F
:101A280007F1080307CA83E8070007F10803184607
:101A380000F073FA4021002000F076FC42F20F71AA
:101A4800002000F0ADFD01220621002000F0C2FCBC
:101A5800FB79642202FB03F37B617B69013B1A4635
:101A68000121002000F03EFD002000F01DFC00BF19
:101A780018461837BD4680BD4433000880B584B089
:101A880000AF786039603968786800F0E5FD034692
:101A9800FB73FB7B18461037BD4680BD80B584B00C
:101AA80000AF7860786800F037FF0346FB73FB7B74
:101AB80018461037BD4680BD80B584B000AF786049
:101AC8000B46FB70FB781946786800F040FF034628
:101AD800FB73FB7B18461037BD4680BD80B584B0CC
:101AE80000AF786039603968786800F05EFF0346B7
:101AF800FB73FB7B18461037BD4680BD80B584B0AC
:101B080000AF78600B46FB70FB781946786800F0E8
:101B180077FF0346FB73FB7B18461037BD4680BD35
:101B280080B584B000AF7860786800F093FF034612
:101B3800FB73FB7B18461037BD4680BD80B483B06D
:101B480000AF78607B681B017B6000E000BF7B68AA
:101B58005A1E7A60002BF9D100BF00BF0C37BD4672
:101B68005DF8047B7047000080B400AF084B1B6829
:101B7800074A43F480231360054B1B68044A23F487
:101B88008013136000BFBD465DF8047B704700BF3B
:101B98000000024080B500AF084B1B68074A43F4B9
:101BA800007313600A20FFF7C9FF044B1B68034A40
:101BB80023F40073136000BF80BD00BF140002400F
:101BC80080B582B000AF00BF1D4B1B6803F4806373
:101BD800002BF9D000237B6005E07B6801337B6034
:101BE8000120FFF7ABFF164B1B6803F48063002B43
:101BF800F3D17868FEF72EFC0DA3D3E90023FEF796
:101C0800A3FC02460B46104619460BA3D3E9002352
:101C1800FEF79AFC02460B4610461946FEF7A6FE4A
:101C280003463B603B6818460837BD4680BD00BF89
:101C3800006F8104C58FA13F6666666666662540AB
:101C48001000024080B485B000AF78600B46FB708E
:101C58001346BB700023FB737B68002B15D0FB7801
:101C68000F2B12D8BB78002B0FD0BB78032B0CD8C6
:101C78007B681B68B978FA78520001FA02F21A43B5
:101C88007B681A600123FB7301E00223FB73FB7B73
:101C980018461437BD465DF8047B704780B485B09C
:101CA80000AF78600B46FB701346BB700023FB73D4
:101CB8007B68002B11D0FB780F2B0ED8BB78012B3B
:101CC8000BD87B685B68B978FA7801FA02F21A4394
:101CD8007B685A600123FB7301E00223FB73FB7BE3
:101CE80018461437BD465DF8047B704780B485B04C
:101CF80000AF78600B46FB701346BB700023FB7384
:101D08007B68002B12D0FB780F2B0FD8BB78032BE6
:101D18000CD87B689B68B978FA78520001FA02F20D
:101D28001A437B689A600123FB7301E00223FB736B
:101D3800FB7B18461437BD465DF8047B704780B4BA
:101D480085B000AF78600B46FB701346BB7000236C
:101D5800FB737B68002B12D0FB780F2B0FD8BB7856
:101D6800022B0CD87B68DB68B978FA78520001FA44
:101D780002F21A437B68DA600123FB7301E0022355
:101D8800FB73FB7B18461437BD465DF8047B704730
:101D980080B485B000AF78600B46FB701346BB700B
:101DA8000023FB737B68002B27D0FB780F2B24D8EC
:101DB800BB78012B21D8BB78012B0BD17B685B69E1
:101DC800FA78012101FA02F21A437B685A61012369
:101DD800FB7314E0BB78002B0CD17B685B69FA7845
:101DE800012101FA02F2D2431A407B685A610123A9
:101DF800FB7304E00223FB7301E00223FB73FB7B0C
:101E080018461437BD465DF8047B704780B485B02A
:101E180000AF78600B46FB701346BB700023FB7362
:101E2800FB78072B0CD87B681B6AB978FA78920084
:101E380001FA02F21A437B681A620123FB7311E06C
:101E4800FB780F2B0CD87B685B6AB978FA7892001C
:101E580001FA02F21A437B685A620123FB7301E01C
:101E68000323FB73FB7B18461437BD465DF8047BE0
:101E7800704780B584B000AF78600023FB737B683F
:101E8800002B43D07B6818687B6819797B685B797D
:101E98001A46FFF7D7FE0346FB73FB7B012B0AD1DB
:101EA8007B6818687B6819797B689B791A46FFF705
:101EB800F5FE0346FB73FB7B012B0AD17B68186890
:101EC8007B6819797B68DB791A46FFF70FFF0346B1
:101ED800FB73FB7B012B0AD17B6818687B68197937
:101EE8007B685B7A1A46FFF72AFF0346FB73FB7B86
:101EF800012B0DD17B6818687B6819797B681B7A80
:101F08001A46FFF745FF0346FB7301E00323FB7303
:101F1800FB7B18461037BD4680BD80B584B000AF46
:101F280078600023FB737B68002B42D07B681868BD
:101F38007B681B7902221946FFF784FE0346FB7370
:101F4800FB7B012B0AD17B6818687B6819797B6851
:101F58009B791A46FFF7A2FE0346FB73FB7B012B16
:101F68000AD17B6818687B6819797B68DB791A461F
:101F7800FFF7BCFE0346FB73FB7B012B0AD17B6892
:101F880018687B6819797B685B791A46FFF73EFF0A
:101F98000346FB73FB7B012B0DD17B6818687B68BC
:101FA80019797B681B7A1A46FFF7C9FE0346FB734B
:101FB80001E00323FB73FB7B18461037BD4680BD49
:101FC80090B484B000AF0346FB710123FB73FB7927
:101FD800542B15D80E4AFB795B09D8B2034652F840
:101FE8002330FA7902F01F02012101FA02F21446A5
:101FF800074A0146234342F821300023FB7301E0DE
:102008000223FB73FB7B18461037BD4690BC704714
:1020180000E100E090B484B000AF044608461146E1
:102028001A462346FB710346BB710B467B71134668
:102038003B710123FB73FB79542B41D8BB79042BEB
:102048003ED80023BB73BB79042B2ED801A252F8CB
:1020580023F000BF77200008A12000087D20000899
:102068008F200008712000083B79BB731DE07B7945
:10207800BB731AE07B799B005AB297F9043013437B
:102088005BB2BB7311E07B79DB005AB297F904307D
:1020980013435BB2BB7308E07B795B005AB297F9D4
:1020A800043013435BB2BB7300BF0949FB79BA7BA9
:1020B8001201D2B20B4483F800230023FB7301E022
:1020C8000223FB73FB7B18461037BD4690BC704754
:1020D80000E100E080B485B000AF0346FB71012346
:1020E800FB73FB79042B0DD80B4B0C4A1A60FB7958
:1020F8001B0243F0BF6343F40033074A1360002315
:10210800FB7301E00223FB73FB7B18461437BD46C3
:102118005DF8047B704700BF0CED00E00000FA0595
:1021280080B483B000AF0123FB710F4B9B680E4A4C
:1021380023F0030393600C4B1B680B4A43F0010325
:1021480013600023FB71084B9B6823F47C4323F046
:10215800F003054A43F080039360FB7918460C3777
:10216800BD465DF8047B70470038024080B485B0F6
:1021780000AF03460A46FB711346BB710123FB738C
:10218800FB79042B48D8BB791F2B45D8FB79032B47
:102198003ED801A252F823F0B1210008CB21000853
:1021A800E5210008FF210008204B1B6BBA790121AB
:1021B80001FA02F211461D4A0B4313630023FB7315
:1021C80029E01A4B5B6BBA79012101FA02F2114638
:1021D800164A0B4353630023FB731CE0134B1B6C21
:1021E800BA79012101FA02F21146104A0B4313642D
:1021F8000023FB730FE00D4B5B6CBA79012101FAE8
:1022080002F21146094A0B4353640023FB7302E0B0
:102218000323FB7302E001E00323FB73FB7B1846F7
:102228001437BD465DF8047B704700BF0038024094
:1022380080B582B000AF194B1B68002B2AD0002351
:10224800FB71174B1B78002B16D1164B1B681B0C08
:10225800DBB203F00103FB71104B1B689847114B6D
:102268001B68104A23F0010313600E4B00225A60CA
:102278000C4B00229A600DE0094B1B78012B09D109
:10228800084B1B681B0CDBB203F00103FB71034B0B
:102298001B68984700BF0837BD4680BD7400002002
:1022A8007800002010E000E080B483B000AF03465F
:1022B800FB71FB79032B29D801A252F823F000BF48
:1022C800D9220008EB220008F92200080723000899
:1022D8004FF080431B684FF0804243F001031360C6
:1022E80015E00E4B1B680D4A43F0010313600EE026
:1022F8000B4B1B680A4A43F00103136007E0094BC4
:102308001B68084A43F00103136000E000BF00BFE8
:102318000C37BD465DF8047B704700BF00040040E1
:1023280000080040000C004080B483B000AF0346B2
:102338000A46FB711346BB80FB79032B3DD801A2EB
:1023480052F823F05D2300087B230008932300083C
:10235800AB2300084FF0804300229A624FF080437D
:102368009B6ABA88013A11464FF080420B43936248
:1023780024E0154B00229A62134B9B6ABA88013AF3
:102388001146114A0B43936218E0104B00229A62DF
:102398000E4B9B6ABA88013A11460C4A0B4393626A
:1023A8000CE00B4B00229A62094B9B6ABA88013AEF
:1023B8001146074A0B43936200E000BF00BF0C3789
:1023C800BD465DF8047B70470004004000080040EB
:1023D800000C004080B483B000AF0346FB710B468D
:1023E800BB7113467B71FB79002B02D0012B47D0C0
:1023F8006FE07B79013B032B69D801A252F823F0E7
:1024080019240008852400084F24000885240008A2
:102418004FF080439B694FF0804223F07303936130
:102428004FF080439B69BA79120111464FF0804200
:102438000B4393614FF080431B6A4FF0804243F097
:10244800010313621BE04FF08043DB694FF08042C9
:1024580023F07303D3614FF08043DB69BA7912012B
:1024680011464FF080420B43D3614FF080431B6A03
:102478004FF0804243F48073136200E000BF26E00F
:102488007B79013B032B24D801A252F823F000BF2B
:10249800A9240008D3240008D3240008D324000862
:1024A8000F4B9B690E4A23F0730393610C4B9B6996
:1024B800BA79120111460A4A0B439361084B1B6A09
:1024C800074A43F00103136200E000BF01E000BFC8
:1024D80000E000BF00BF0C37BD465DF8047B7047C5
:1024E8000004004080B483B000AF03463A60FB713B
:1024F8000B46BB71FB79002B02D0012B25D047E09E
:10250800BB79013B032B40D801A252F823F000BF4E
:1025180029250008332500083D250008472500081F
:102528004FF080423B6853630EE04FF080423B68B7
:10253800936309E04FF080423B68D36304E04FF0B7
:1025480080423B68136400BF1FE0BB79013B032B4B
:102558001DD801A252F823F071250008792500083A
:1025680081250008892500080C4A3B6853630BE065
:102578000A4A3B68936307E0084A3B68D36303E071
:10258800064A3B68136400BF01E000BF00E000BFDB
:1025980000BF0C37BD465DF8047B7047000400405F
:1025A80080B483B000AF03463960FB71FB79032B1D
:1025B8000FD0032B11DC002B02D0012B05D00CE02F
:1025C8004FF080423B68D36208E0074A3B68D36219
:1025D80004E0064A3B68D36200E000BF00BF0C3746
:1025E800BD465DF8047B704700040040000C0040C5
:1025F80080B586B000AF0346FB71164A07F10803A1
:1026080007CA83E8070007F108031846FFF785FCA7
:1026180040210120FFF788FE42F20F710120FFF7E9
:10262800BFFF012206210120FFF7D4FEFB796422B7
:1026380002FB03F37B617B69013B1A460121012000
:10264800FFF750FF0120FFF72FFE00BF1837BD46E8
:1026580080BD00BF5033000890B585B000AF7860EA
:1026680039600023FB733B68002B00F045817B68D1
:10267800002B00F041813B685B78002B02D0012BD6
:1026880072D0E1E03B685B681846FDF7E3FE4FF067
:1026980000029F4BFDF758FF02460B469AA1D1E96D
:1026A8000001FEF77BF802460B4610461946FEF776
:1026B8005DF90346974AA2FB03235B091C013B68AB
:1026C8005B681846FDF7C6FE4FF00002904BFDF719
:1026D8003BFF02460B468CA1D1E90001FEF75EF8EC
:1026E80002460B4610461946FEF740F90246894B4A
:1026F800A3FB02135B09642101FB03F3D31A1B013B
:102708003233844AA2FB03235B0903F0F0031C4421
:102718003B685B681846FDF79DFE4FF000027C4B56
:10272800FDF712FF02460B4677A1D1E90001FEF73B
:1027380035F802460B4610461946FEF717F90246C9
:10274800744BA3FB02135B09642101FB03F3D31A47
:102758001B0132336F4AA2FB03235B0903F00F030B
:10276800E2187B689A606FE03B685B681846FDF783
:1027780071FE02460B46FDF731FD02460B4662A18B
:10278800D1E90001FEF70AF802460B461046194641
:10279800FEF7ECF803465F4AA2FB03235B091C0122
:1027A8003B685B681846FDF755FE02460B46FDF789
:1027B80015FD02460B4654A1D1E90001FDF7EEFFD5
:1027C80002460B4610461946FEF7D0F80246514B12
:1027D800A3FB02135B09642101FB03F3D31ADB009B
:1027E80032334C4AA2FB03235B095B0003F4F87302
:1027F8001C443B685B681846FDF72CFE02460B46F6
:10280800FDF7ECFC02460B463FA1D1E90001FDF7BC
:10281800C5FF02460B4610461946FEF7A7F80246C2
:102828003C4BA3FB02135B09642101FB03F3D31A9E
:10283800DB003233374AA2FB03235B0903F00703AB
:10284800E2187B689A6000BF3B685B78DA033B68F4
:102858001B7B5B031A433B681B7A1B031A433B68C9
:102868005B7A9B021A433B689B7A5B0213431A46C6
:102878007B68DA603B681B78022B14D0022B1FDCC4
:10288800002B02D0012B07D01AE07B68DB6843F0ED
:1028980008027B68DA6013E07B68DB6843F00402B7
:1028A8007B68DA600CE07B68DB6843F008027B68D1
:1028B800DA607B68DB6843F004027B68DA6000BF9B
:1028C8003B68DB7A1A033B685B7BDB021A433B6895
:1028D800DB7B5B021A433B689B7B9B021A433B688A
:1028E8001B7C1B0213431A467B681A617B68002213
:1028F8001A600123FB7301E00223FB73FB7B18467C
:102908001437BD4690BD00BF0000000084D7A74122
:10291800000010401F85EB5180B485B000AF78608F
:102928000023FB737B68002B08D07B68DB6843F4CB
:1029380000527B68DA600123FB7301E00223FB731A
:10294800FB7B18461437BD465DF8047B704780B49E
:1029580085B000AF78600B46FB700023FB737B6883
:10296800002B19D000BF7B681B6803F08003002B85
:10297800F9D0FA787B685A6000BF7B681B6803F05F
:102988004003002BF9D07B681B6823F040027B686A
:102998001A600123FB7301E00223FB73FB7B1846DB
:1029A8001437BD465DF8047B704780B584B000AF2E
:1029B800786039600023FB737B68002B19D03B6873
:1029C800002B16D00023BB600AE03A68BB681344AA
:1029D8001B7819467868FFF7BAFFBB680133BB60FC
:1029E8003A68BB6813441B78002BEED10123FB73B4
:1029F80001E00223FB73FB7B18461037BD4680BD00
:102A080080B485B000AF78600B46FB700023FB7381
:102A18007B68002B15D0FB78002B08D0012B0DD13B
:102A28007B68DB6843F020027B68DA6006E07B683D
:102A3800DB6823F020027B68DA6000BF0123FB73A8
:102A480001E00223FB73FB7B18461437BD465DF893
:102A5800047B704780B485B000AF78600023FB73B7
:102A68007B68002B05D0074A7B6813600123FB7342
:102A780001E00223FB73FB7B18461437BD465DF863
:102A8800047B70477C00002080B485B000AF78607C
:102A98000023FB737B68002B05D0074A7B68136013
:102AA8000123FB7301E00223FB73FB7B18461437F9
:102AB800BD465DF8047B70478000002080B500AFFC
:102AC800034B00221A60034B1B68984700BF80BD68
:102AD800001001407C00002080B500AF034B0022AD
:102AE8001A60034B1B68984700BF80BD0044004034
:102AF8008000002080B500AF034B00221A60034B12
:102B08001B68984700BF80BD001401408400002066
:102B180080B500AFFEF728F9FEF7BAF900BF80BD0F
:102B28000D488546AFF300800C480D490D4A002337
:102B380002E0D458C4500433C4188C42F9D30A4A6A
:102B48000A4C002301E013600432A242FBD300F0D8
:102B580011F8FFF7DDFFFEE700000120000000206C
:102B68003C000020643300083C000020880000205E
:102B7800FEE7000070B50D4D0D4C641BA410002637
:102B8800A64209D10B4D0C4C00F026F8641BA4108A
:102B98000026A64205D170BD55F8043B984701367A
:102BA800EEE755F8043B98470136F2E75C33000836
:102BB8005C3300085C330008603300080A44914223
:102BC80000F1FF3300D1704710B511F8014B03F83D
:102BD800014F9142F9D110BDF8B500BFF8BC08BC4F
:102BE8009E467047F8B500BFF8BC08BC9E467047C3
:102BF800414343205370656564204C696D697420B6
:102C080049732053657474696E67200D0A000000CB
:102C180041434320496E20477265656E2052616EBC
:102C28006765200D0A000000414343204375727216
:102C3800656E74205370656564204973203A2000DE
:102C48000D0A000041434320496E20477265656EB6
:102C58002052616E676532200D0A0000414343200F
:102C6800496E20426C75652052616E6765200D0AB9
:102C7800000000004E6F204368616E676520496E52
:102C8800205370656564203A2000000041434320CA
:102C9800496E20426C75652052616E6765320D0A77
:102CA8000000000041434320496E205265642052D1
:102CB800616E6765200D0A00526561636820537074
:102CC800656564204C696D69740D0A004175746FFF
:102CD8006D6174696320456D657267656E637920FF
:102CE8004272616B65204973205265616479200DD9
:102CF8000A00000054686569722069732061206EBB
:102D08006577206669726D77617265206F6E2073D2
:102D180065727665720D0A00000002400207000124
:102D2800000000000000024003070001000000004E
:102D380000040240060700010000000000040240F1
:102D480007070001000000004175746F6D61746928
:102D58006320456D657267656E6379204272616BA9
:102D68006520497320416374697665200D0A000067
:102D7800546F2053746F702041636320496E204163
:102D88006E792054696D65205072657373207A20BE
:102D98000D0A0000546F2053746F70204E63632037
:102DA800496E20416E792054696D652050726573B3
:102DB80073206B200D0A00004E6363204973205373
:102DC800746F70706564200D0A0000004163632011
:102DD80049732053746F70706564200D0A000000F9
:102DE8004361722057696C6C2053746F7020466F72
:102DF8007220557064617465204669726D776172DE
:102E0800650D0A004661756C742031203A204361D3
:102E18007220497320416C7265616479204F6E207D
:102E28000D0A00004661756C742032203A204E432A
:102E38004320497320416C72656164792041637451
:102E4800697665200D0A00004661756C7420332090
:102E58003A2041434320497320416C72656164798B
:102E680020416374697665200D0A00004661756C1F
:102E7800742034203A2043617220497320416C72D7
:102E880065616479204F6666200D0A004661756C9D
:102E9800742035203A204E434320497320416C72F8
:102EA80065616479204F6666200D0A004661756C7D
:102EB800742036203A2041434320497320416C72E4
:102EC80065616479204F6666200D0A004661756C5D
:102ED800742037203A2053657474696E67205370E4
:102EE800656564204F7574204F66205468652052CC
:102EF800616E6765204F6620283120546F2031307D
:102F08003029200D0A0000004661756C74203820B5
:102F18003A2043616E2774204368616E67652053C9
:102F280070656564204143432026204E4343204971
:102F380073204E6F7420576F726B696E67200D0A8D
:102F4800000000004661756C742039203A204E6FED
:102F5800204E65772055706461746520466F722035
:102F6800546865204669726D77617265204F6E20DE
:102F780054686520536572766572200D0A0000005A
:102F88004661756C7420203A20496E76616C6964DC
:102F9800204F7074696F6E200D0A00004361722023
:102FA800696E2064616E6765726F7573207A6F6EE3
:102FB8006520616C6C2073797374656D7320617220
:102FC80065207475726E6564206F6666200D0A0050
:102FD80043617220696E2073616665207A6F6E6541
:102FE80020796F752063616E207475726E206F6E24
:102FF80020616E792073797374656D2061676169EA
:103008006E0D0A004E636320497320576F726B6917
:103018006E67204E6F77200D0A0000002D2D2D2D94
:103028002D2D2D2D2D2D2D2D2D2D2D2D2D2D2D2DC8
:103038002D2D2D2D2D2D2D2D2D2D2D2D2D2D0D0AFB
:103048007C202020202020434152204441534842E4
:103058004F41524420444953504C4159202020208C
:10306800207C0D0A2D2D2D2D2D2D2D2D2D2D2D2D89
:103078002D2D2D2D2D2D2D2D2D2D2D2D2D2D2D2D78
:103088002D2D2D2D2D2D0D0A7C204361722053747A
:10309800617475733A205B2020204F46462020201B
:1030A800205D202020202020207C0D0A7C204361E8
:1030B80072205370656564203A205B2020205A45B1
:1030C800524F2020205D202020202020207C0D0A27
:1030D8007C204E4343205374617475733A205B20FF
:1030E80020204F4646202020205D20202020202020
:1030F800207C0D0A7C20414343205374617475730E
:103108003A205B2020204F4646202020205D2020AA
:1031180020202020207C0D0A2D2D2D2D2D2D2D2D0C
:103128002D2D2D2D2D2D2D2D2D2D2D2D2D2D2D2DC7
:103138002D2D2D2D2D2D2D2D2D2D0D0A00000000AE
:103148002D2D2D2D2D2D2D2D2D2D2D2D2D2D2D2DA7
:103158002D2D2D2D2D2D2D2D2D2D2D2D2D2D2D2D97
:103168002D2D0D0A7C202020202020434152204470
:10317800415348424F41524420444953504C4159CD
:1031880020202020207C0D0A2D2D2D2D2D2D2D2D9C
:103198002D2D2D2D2D2D2D2D2D2D2D2D2D2D2D2D57
:1031A8002D2D2D2D2D2D2D2D2D2D0D0A7C205455F9
:1031B800524E20434152204F4E3A205B202020207F
:1031C8004F202020205D202020202020207C0D0A58
:1031D8002D2D2D2D2D2D2D2D2D2D2D2D2D2D2D2D17
:1031E8002D2D2D2D2D2D2D2D2D2D2D2D2D2D2D2D07
:1031F8002D2D0D0A000000002D2D2D2D2D2D2D2DEE
:103208002D2D2D2D2D2D2D2D2D2D2D2D2D2D2D2DE6
:103218002D2D2D2D2D2D2D2D2D2D0D0A7C202020F1
:103228002020204341522044415348424F415244B8
:1032380020444953504C415920202020207C0D0A1D
:103248002D2D2D2D2D2D2D2D2D2D2D2D2D2D2D2DA6
:103258002D2D2D2D2D2D2D2D2D2D2D2D2D2D2D2D96
:103268002D0D0A7C205455524E204E4343204F4E7C
:10327800203A202020205B202020206E2020205D66
:10328800202020207C0D0A7C205455524E2041439A
:1032980043204F4E203A202020205B202020206110
:1032A8002020205D202020207C0D0A7C20545552AF
:1032B8004E204F4646202020203A202020205B2008
:1032C800202020732020205D202020207C0D0A7CD7
:1032D800205455524E204E4343204F46463A202014
:1032E80020205B202020206B2020205D2020202013
:1032F8007C0D0A7C205455524E20414343204F46B2
:10330800463A202020205B202020207A2020205DA3
:10331800202020207C0D0A2D2D2D2D2D2D2D2D2DFD
:103328002D2D2D2D2D2D2D2D2D2D2D2D2D2D2D2DC5
:103338002D2D2D2D2D2D2D2D2D0D0A000000024097
:103348000001000100000000000002400602000128
:043358000000000071
:04335C00BD010008A7
:0433600099010008C7
:1033640000040240000000000004024001000000CC
:103374000200000000C20100000000000000000084
:103384000000000002000000802500000000000092
:0C33940000000000000000006432320065
:0400000508002B299B
:00000001FF
