:020000040800F2
:100000000000012019280008692800086928000854
:100010006928000869280008692800080000000015
:100020000000000000000000000000006928000837
:10003000692800080000000069280008711E0008F7
:1000400000000000692800086928000869280008E5
:10005000692800086928000869280008692800083C
:10006000692800086928000869280008692800082C
:10007000692800086928000869280008692800081C
:1000800069280008692800086928000800000000A5
:1000900000000000000000000000000069280008C7
:1000A00069280008692800086928000869280008EC
:1000B00069280008692800086928000869280008DC
:1000C00069280008692800086928000869280008CC
:1000D00069280008B5270008D127000800000000A3
:1000E0006928000869280008692800080000000045
:1000F0000000000000000000000000006928000867
:100100000000000069280008692800086928000824
:1001100000000000000000000000000000000000DF
:10012000692800086928000869280008692800086B
:100130006928000800000000000000000000000026
:100140000000000000000000000000006928000816
:10015000692800086928000869280008ED270008B8
:10016000692800086928000800000000000000005D
:10017000000000000000000000000000000000007F
:10018000000000000000000000000000000000006F
:0401900069280008D2
:1001980010B5054C237833B9044B13B10448AFF3B9
:1001A80000800123237010BD88000020000000009B
:1001B8000C2A000808B5034B1BB103490348AFF3E9
:1001C800008008BD000000008C0000200C2A0008F8
:1001D80081F0004102E000BF83F0004330B54FEAF0
:1001E80041044FEA430594EA050F08BF90EA020F5D
:1001F8001FBF54EA000C55EA020C7FEA645C7FEAF0
:10020800655C00F0E2804FEA5454D4EB5555B8BF12
:100218006D420CDD2C4480EA020281EA030382EA83
:10022800000083EA010180EA020281EA0303362D15
:1002380088BF30BD11F0004F4FEA01314FF4801CE8
:100248004CEA113102D0404261EB410113F0004FFA
:100258004FEA03334CEA133302D0524263EB4303B1
:1002680094EA050F00F0A780A4F10104D5F1200E4F
:100278000DDB02FA0EFC22FA05F2801841F10001AA
:1002880003FA0EF2801843FA05F359410EE0A5F17E
:1002980020050EF1200E012A03FA0EFC28BF4CF0AF
:1002A800020C43FA05F3C01851EBE37101F0004565
:1002B80007D54FF0000EDCF1000C7EEB00006EEB72
:1002C8000101B1F5801F1BD3B1F5001F0CD34908FC
:1002D8005FEA30004FEA3C0C04F101044FEA445253
:1002E80012F5800F80F09A80BCF1004F08BF5FEADA
:1002F800500C50F1000041EB045141EA050130BDBA
:100308005FEA4C0C404141EB0101013C28BFB1F5CB
:10031800801FE9D291F0000F04BF01460020B1FA16
:1003280081F308BF2033A3F10B03B3F120020CDAE9
:100338000C3208DD02F1140CC2F10C0201FA0CF0C7
:1003480021FA02F10CE002F11402D8BFC2F1200C2C
:1003580001FA02F120FA0CFCDCBF41EA0C019040E2
:10036800E41AA2BF01EB0451294330BD6FEA04042B
:100378001F3C1CDA0C340EDC04F11404C4F1200216
:1003880020FA04F001FA02F340EA030021FA04F328
:1003980045EA030130BDC4F10C04C4F1200220FA7F
:1003A80002F001FA04F340EA0300294630BD21FABD
:1003B80004F0294630BD94F0000F83F4801306BF83
:1003C80081F480110134013D4EE77FEA645C18BF77
:1003D8007FEA655C29D094EA050F08BF90EA020F0E
:1003E80005D054EA000C04BF1946104630BD91EA06
:1003F800030F1EBF0021002030BD5FEA545C05D109
:100408004000494128BF41F0004130BD14F5800447
:100418003CBF01F5801130BD01F0004545F0FE41BB
:1004280041F470014FF0000030BD7FEA645C1ABFF0
:10043800194610467FEA655C1CBF0B46024650EA27
:10044800013406BF52EA033591EA030F41F4002153
:1004580030BD00BF90F0000F04BF0021704730B5D9
:100468004FF4806404F132044FF000054FF00001AE
:1004780050E700BF90F0000F04BF0021704730B56F
:100488004FF4806404F1320410F0004548BF404244
:100498004FF000013EE700BF42004FEAE2014FEA99
:1004A80031014FEA02701FBF12F07F4393F07F4F74
:1004B80081F06051704732F07F4208BF704793F077
:1004C8007F4F04BF41F40021704730B54FF460748A
:1004D80001F0004521F000411CE700BF50EA01028D
:1004E80008BF704730B54FF000050AE050EA010236
:1004F80008BF704730B511F0004502D5404261EBA6
:1005080041014FF4806404F132045FEA915C3FF4E6
:10051800D8AE4FF003025FEADC0C18BF03325FEA83
:10052800DC0C18BF033202EBDC02C2F1200300FA34
:1005380003FC20FA02F001FA03FE40EA0E0021FA59
:1005480002F11444BDE600BF70B54FF0FF0C4CF447
:10055800E06C1CEA11541DBF1CEA135594EA0C0FF9
:1005680095EA0C0F00F0DEF82C4481EA030621EA34
:100578004C5123EA4C5350EA013518BF52EA03356F
:1005880041F4801143F4801338D0A0FB02CE4FF021
:100598000005E1FB02E506F00042E0FB03E54FF051
:1005A8000006E1FB03569CF0000F18BF4EF0010E49
:1005B800A4F1FF04B6F5007F64F5407404D25FEA45
:1005C8004E0E6D4146EB060642EAC62141EA5551F8
:1005D8004FEAC52040EA5E504FEACE2EB4F1FD0C3A
:1005E80088BFBCF5E06F1ED8BEF1004F08BF5FEAB8
:1005F800500E50F1000041EB045170BD06F000466A
:1006080046EA010140EA020081EA0301B4EB5C0416
:10061800C2BFD4EB0C0541EA045170BD41F480110E
:100628004FF0000E013C00F3AB8014F1360FDEBF33
:10063800002001F0004170BDC4F10004203C35DA0F
:100648000C341BDC04F11404C4F1200500FA05F392
:1006580020FA04F001FA05F240EA020001F0004233
:1006680021F0004110EBD37021FA04F642EB0601A9
:100678005EEA430E08BF20EAD37070BDC4F10C04D3
:10068800C4F1200500FA04F320FA05F001FA04F297
:1006980040EA020001F0004110EBD37041F1000183
:1006A8005EEA430E08BF20EAD37070BDC4F120058E
:1006B80000FA05F24EEA020E20FA04F301FA05F2F6
:1006C80043EA020321FA04F001F0004121FA04F29E
:1006D80020EA020000EBD3705EEA430E08BF20EA6E
:1006E800D37070BD94F0000F0FD101F000464000A8
:1006F80041EB010111F4801F08BF013CF7D041EA2A
:10070800060195F0000F18BF704703F0004652002D
:1007180043EB030313F4801F08BF013DF7D043EAFE
:100728000603704794EA0C0F0CEA135518BF95EAB4
:100738000C0F0CD050EA410618BF52EA4306D1D13B
:1007480081EA030101F000414FF0000070BD50EA5A
:10075800410606BF1046194652EA430619D094EAE4
:100768000C0F02D150EA013613D195EA0C0F05D1CE
:1007780052EA03361CBF104619460AD181EA030122
:1007880001F0004141F0FE4141F470014FF00000DA
:1007980070BD41F0FE4141F4780170BD70B54FF075
:1007A800FF0C4CF4E06C1CEA11541DBF1CEA1355F5
:1007B80094EA0C0F95EA0C0F00F0A7F8A4EB0504D7
:1007C80081EA030E52EA03354FEA013100F08880CE
:1007D8004FEA03334FF0805545EA131343EA126397
:1007E8004FEA022245EA111545EA10654FEA00264C
:1007F8000EF000419D4208BF964244F1FD0404F505
:10080800407402D25B084FEA3202B61A65EB030560
:100818005B084FEA32024FF480104FF4002CB6EB1D
:10082800020E75EB030E22BFB61A754640EA0C009D
:100838005B084FEA3202B6EB020E75EB030E22BFDD
:10084800B61A754640EA5C005B084FEA3202B6EB1E
:10085800020E75EB030E22BFB61A754640EA9C00DD
:100868005B084FEA3202B6EB020E75EB030E22BFAD
:10087800B61A754640EADC0055EA060E18D04FEA6B
:10088800051545EA16754FEA06164FEAC30343EA0B
:1008980052734FEAC2025FEA1C1CC0D111F4801FD8
:1008A8000BD141EA00014FF000004FF0004CB6E7D1
:1008B80011F4801F04BF01430020B4F1FD0C88BF70
:1008C800BCF5E06F3FF6AFAEB5EB030C04BFB6EB7B
:1008D800020C5FEA500C50F1000041EB045170BD6E
:1008E8000EF0004E4EEA113114EB5C04C2BFD4EB9B
:1008F8000C0541EA045170BD41F480114FF0000E1F
:10090800013C90E645EA060E8DE60CEA135594EA9A
:100918000C0F08BF95EA0C0F3FF43BAF94EA0C0F9D
:100928000AD150EA01347FF434AF95EA0C0F7FF412
:1009380025AF104619462CE795EA0C0F06D152EA66
:1009480003353FF4FDAE1046194622E750EA41064A
:1009580018BF52EA43067FF4C5AE50EA41047FF45B
:100968000DAF52EA43057FF4EBAE12E74A0011D20D
:1009780012F5001211D20DD56FF47873B3EB6252F1
:100988000ED44FEAC12343F0004343EA505323FAFD
:1009980002F070474FF00000704750EA013002D172
:1009A8004FF0FF3070474FF00000704780B582B0BD
:1009B80000AF78600B46FB70084AFB7813707868C4
:1009C80000F0F5FD0649074800F094FE064B0122A9
:1009D8001A7000BF0837BD4680BD00BFA4000020C4
:1009E800242A000800100140A600002080B582B02B
:1009F80000AF786039603B68312B34D94B4B1A789B
:100A08004B4B1B789A422ED24A4B1B78002B1FD196
:100A1800464B1B780533DAB2444B1A70434B1B78AC
:100A2800184600F003FE4449444800F063FE444978
:100A3800424800F05FFE3D4B1B783033DBB219466D
:100A48003E4800F045FE3F493C4800F053FE68E050
:100A5800384B1B78012B64D1786800F0A8FD354B22
:100A680000221A705DE03B68312B21D83B68132BBC
:100A78001ED93549314800F03DFE34492F4800F071
:100A880039FE2A4B1B783033DBB219462B4800F06D
:100A98001FFE2C49294800F02DFE264B1B78012B00
:100AA80040D1786800F083FD224B00221A7039E0AB
:100AB8003B68132B30D83B68002B2DD01B4B1B7881
:100AC800002B1FD0194B1B780A3BDAB2174B1A7050
:100AD800164B1B78184600F0A9FD1D49174800F071
:100AE80009FE1749154800F005FE104B1B783033F6
:100AF800DBB21946114800F0EBFD12490F4800F02F
:100B0800F9FD0FE0786800F031FD0A4B01221A70F8
:100B1800012000F08BFD05E00E49084800F0EAFDD1
:100B280000E000BF00BF0837BD4680BDA50000201B
:100B3800A4000020A6000020442A0008001001405C
:100B48005C2A0008742A0008782A0008902A0008FD
:100B5800A82A0008BC2A000880B582B000AF7860D7
:100B68007B68002B05D0786800F000FD012000F0BC
:100B78005DFD00BF0837BD4680BD000080B500AFF1
:100B88000249034800F0B6FD00BF80BDD02A000826
:100B98000010014080B500AF0A4B5B68DAB20A4B1F
:100BA8001A70094B1B786D2B09D10849084801F0C8
:100BB80018FD084B01221A70034B00221A7000BF5F
:100BC80080BD00BF00440040B9000020F82A00089A
:100BD80000100140B700002080B500AF094B5B68EA
:100BE800DAB2094B1A70084B1B78184600F09EF9C8
:100BF80003461A46054B1A70034B00221A7000BFB1
:100C080080BD00BF00100140B8000020AD000020EA
:100C180080B58CB000AF01F09FF80021002001F0F2
:100C2800C1F80021022001F0BDF80121002001F0E7
:100C3800B9F80421032001F0B5F81121022001F0D0
:100C4800B1F80121022001F0ADF8322001F0ECFAF0
:100C5800002001F05BF8002301220021252000F08C
:100C6800F5FF252000F0C8FF0023022200212620DE
:100C780000F0ECFF262000F0BFFF244A07F1240310
:100C880007CA83E80700224A07F1180307CA83E85E
:100C9800070007F12403184600F05BFF07F118036B
:100CA800184600F056FF1B491B4801F0F1FA1A4894
:100CB80001F04EFC0121184801F019FD174801F018
:100CC8005BFD174A07F10C0307CA83E80700154ABA
:100CD8003B4607CA83E8070007F10C03184600F0F3
:100CE80038FF3B46184600F034FF0F4A0F491048BA
:100CF80000F03AFB0F4800F0B1FB0E4800F057FC3B
:100D080000F04EFD00BF3037BD4680BD1C2B0008EB
:100D1800282B000824000020004400409D0B0008F8
:100D2800342B0008402B0008E10B000810000020BD
:100D3800001001400000002080B586B000AF00F030
:100D480045FD00F059FD0346684A136042F21070F1
:100D580000F010FD664B1B78092BF0D801A252F861
:100D680023F000BF950D0008A70D0008410E0008EC
:100D7800C90D00082D0E0008B50D00089F0E0008CB
:100D8800B50E0008470D0008CB0E0008594800F0C2
:100D980003FBFFF7F3FE564B08221A70A4E05548F0
:100DA80000F036FB524B08221A709DE0524B1B781C
:100DB800184600F01DFA03461A464D4B1A7093E088
:100DC8004E494C4800F096FC07F10C031946494877
:100DD80000F0A0FC07F10C03184601F042FD0346A1
:100DE800FB7507F10C030A220021184601F0CAFD21
:100DF800FB7D002B0FD0FB7D642B0CD8FB7D1946A7
:100E08003F48FFF7D3FD3F493A4800F073FC384BA1
:100E180004221A7068E0384B07221A70344B0522F6
:100E28001A7061E0314B1B6819463548FFF7DEFD43
:100E38002F4B08221A7057E033492E4800F05AFC0D
:100E48003B4619462B4800F065FC3B46184601F026
:100E580008FD0346BB753B460A220021184601F0EF
:100E680091FDBB7D002B0FD0BB7D642B0CD8BB7DC7
:100E78001946234800F050FA24491E4800F03AFC6D
:100E88001B4B08221A702FE01B4B07221A70184BB5
:100E980005221A7028E01A4800F058FA1C4915482B
:100EA80000F028FC124B01221A701DE01448FFF7CD
:100EB80053FE18490F4800F01DFC0D4B01221A7013
:100EC80012E015490B4801F08CFB144B00221A70F4
:100ED8007121134801F085FB124B134A1A60114B1C
:100EE8001B68984700BF2AE729E700BFB000002029
:100EF800AD00002000100140AC0000204C2B000881
:100F080000000020642B0008882B0008A02B000894
:100F1800C42B0008D82B0008EC2B0008B7000020D1
:100F280000440040A80000200400000880B584B0F8
:100F380000AF0346FB71FB79613B192B00F2378147
:100F480001A252F823F000BF35100008B7110008BD
:100F5800B7110008B7110008B7110008B711000849
:100F6800B7110008B7110008B7110008611100088F
:100F7800D9100008B7110008B7110008E30F0008DE
:100F8800B90F0008B7110008B7110008B711000819
:100F980087100008B7110008B7110008B71100083A
:100FA800B7110008B7110008B71100081D11000893
:100FB8008A4B1B78002B05D1884B01221A7001231C
:100FC800FB73FAE0854B1B78012B40F0F680844BCD
:100FD80001221A700523FB73EFE0824B1B78002B6C
:100FE80019D17E4B1B78012B0FD17F4B1B78002B1F
:100FF80005D17C4B01221A700223FB73DFE0784B8A
:1010080003221A700523FB73D9E0754B04221A706A
:101018000523FB73DCE0734B1B78012B40F0CF807A
:101028006F4B02221A700523FB73C8E06E4B1B78C6
:10103800002B19D1694B1B78012B0FD1694B1B78F9
:10104800002B05D1684B01221A700323FB73B8E00B
:10105800634B02221A700523FB73B2E0604B042233
:101068001A700523FB73B3E05F4B1B78012B40F02C
:10107800A8805B4B03221A700523FB73A1E0574B32
:101088001B78012B19D1574B1B78002B0FD1564BCE
:101098001B78002B05D1514B00221A700023FB73DB
:1010A80091E04F4B03221A700523FB738BE04C4BE6
:1010B80002221A700523FB7385E0484B1B78002B2E
:1010C80040F08180464B04221A700523FB737AE0B6
:1010D800424B1B78012B13D1424B1B78012B05D1B6
:1010E800404B00221A700623FB736EE03D4B1B78C1
:1010F800002B6AD13A4B06221A700523FB7364E071
:10110800364B1B78002B60D1354B04221A7005230F
:10111800FB735AE0314B1B78012B13D1324B1B78F0
:10112800012B05D1304B00221A700723FB734EE0C8
:101138002D4B1B78002B4AD1294B05221A70052309
:10114800FB7344E0254B1B78002B40D1244B042231
:101158001A700523FB733AE0204B1B78002B20D133
:10116800214B1B78002B16D11E4B1B78002B0CD162
:101178001E4B1B78012B02D10923FB7328E0184B67
:1011880008221A700523FB7322E0154B02221A70FD
:101198000523FB731CE0124B03221A700523FB7313
:1011A80016E00F4B01221A700523FB7310E0232071
:1011B80000F01EF80346FB730AE000BF08E000BF1A
:1011C80006E000BF04E000BF02E000BF00E000BF8F
:1011D800FB7B18461037BD4680BD00BFB400002019
:1011E800AC000020B5000020B6000020B7000020A9
:1011F80080B584B000AF0346FB71FB79013B072B38
:1012080055D801A252F823F0311200083F12000805
:101218004D1200085B1200087712000869120008D6
:1012280085120008A91200082E492F4800F062FA1A
:101238000823FB7350E02D492B4800F05BFA082384
:10124800FB7349E02A49284800F054FA0423FB7349
:1012580042E02849244800F04DFA0023FB733BE0A4
:101268002549214800F046FA0823FB7334E0234956
:101278001D4800F03FFA0823FB732DE020491A4867
:1012880000F038FA1F4B1B78012B02D10223FB73A5
:101298001FE01D4B1B78012B1BD10323FB7318E0A8
:1012A8001A49114800F026FA0023FB7314E0184984
:1012B8000D4800F01FFA174B1B78012B02D10823A9
:1012C800FB7308E0134B1B78002B04D10023FB733E
:1012D80001E000BF00E000BFFB7B18461037BD46A9
:1012E80080BD00BF102C000800100140302C000801
:1012F800542C0008782C0008982C0008B82C0008FA
:10130800D82C0008B5000020B6000020142D0008D5
:10131800502D0008B400002080B582B000AF78607E
:101328000B46FB70FB78184600F080F9786800F0EF
:101338003EF90449044800F0DDF900BF0837BD460E
:1013480080BD00BFD42D00080010014080B582B0D8
:1013580000AF7860012000F069F9786800F006F9BC
:1013680000BF0837BD4680BD80B584B000AFF860C7
:10137800B9607A60B968F86800F08CF9F86800F02C
:1013880099F90121F86800F0D5F9786800F0E4F9D6
:1013980000BF1037BD4680BD80B5FAB000AF07F575
:1013A800F473A3F5F273186007F5F473A3F5927359
:1013B800154A1846114640F221131A4601F014FB4B
:1013C80007F5F473A3F5EE73104A18461146B523D2
:1013D8001A4601F009FB07F1C40207F5F473A3F5F7
:1013E800F2731146186800F085F907F10C0207F549
:1013F800F473A3F5F2731146186800F07BF900BF87
:1014080007F5F477BD4680BDEC2D0008102F0008C5
:1014180080B5D4B000AF07F5A873A3F5A67318601C
:1014280007F5A873A3F5A2730B4A184611464FF4A3
:10143800A2731A4601F0D8FA07F10C0207F5A8734F
:10144800A3F5A6731146186800F054F900BF07F514
:10145800A877BD4680BD00BFC82F000880B590B0F2
:1014680000AF78607B68002B03D1012387F83F30F9
:1014780076E07B689B7B002B3AD17B681B683B63DB
:101488007B681B7987F83430012387F835300023CF
:1014980087F83630022387F837307B685B7B87F81C
:1014A8003830002387F8393007F13003184600F048
:1014B800FCFA7B689B687B627B681B7B87F828301B
:1014C800012387F82930002387F82A30022387F878
:1014D8002B30002387F82C30002387F82D3007F1B4
:1014E8002403184600F0E1FA002387F83F3037E07C
:1014F8007B689B7B012B30D17B681B68BB617B6859
:101508001B793B7701237B770023BB770223FB778B
:10151800002387F82030002387F8213007F11803CB
:10152800184600F0C2FA7B689B68FB607B681B7BEF
:101538003B7401237B740023BB740223FB747B6818
:101548005B7B3B7500237B7507F10C03184600F0A5
:10155800ACFA002387F83F3002E0012387F83F30D8
:1015680097F83F3018464037BD4680BD80B584B0F7
:1015780000AF78607B68002B02D10123FB7311E078
:101588007B6818687B681B790022194600F01CFAF2
:101598007B6898687B681B7B0022194600F014FA68
:1015A8000023FB73FB7B18461037BD4680BD80B512
:1015B80084B000AF78607B68002B02D10123FB73F5
:1015C8002FE07B689B7B002B12D17B6818687B68B7
:1015D8001B790122194600F0F7F97B6898687B6847
:1015E8001B7B0022194600F0EFF90023FB7318E07B
:1015F8007B689B7B012B12D17B6818687B681B7901
:101608000022194600F0E0F97B6898687B681B7B2C
:101618000122194600F0D8F90023FB7301E00123E9
:10162800FB73FB7B18461037BD4680BD80B586B07E
:1016380000AF0346FB71164A07F1080307CA83E89F
:10164800070007F10803184600F083FA402100203C
:1016580000F086FC42F20F71002000F0BDFD01226F
:101668000621002000F0D2FCFB79642202FB03F380
:101678007B617B69013B1A460121002000F04EFD89
:10168800002000F02DFC00BF18461837BD4680BD6D
:101698000C31000880B584B000AF786039603968D3
:1016A800786800F0F5FD0346FB73FB7B184610379E
:1016B800BD4680BD80B584B000AF7860786800F022
:1016C80047FF0346FB73FB7B18461037BD4680BDBA
:1016D80080B584B000AF78600B46FB70FB78194684
:1016E800786800F050FF0346FB73FB7B1846103701
:1016F800BD4680BD80B584B000AF78603960396878
:10170800786800F06EFF0346FB73FB7B18461037C2
:10171800BD4680BD80B584B000AF78603960396857
:10172800786800F0AEFF0346FB73FB7B1846103762
:10173800BD4680BD80B584B000AF78600B46FB70B5
:10174800FB781946786800F0D2FF0346FB73FB7BF1
:1017580018461037BD4680BD80B584B000AF7860AC
:10176800786800F0EFFF0346FB73FB7B18461037E1
:10177800BD4680BD80B483B000AF78607B681B0134
:101788007B6000E000BF7B685A1E7A60002BF9D1AD
:1017980000BF00BF0C37BD465DF8047B70470000F2
:1017A80080B400AF084B1B68074A43F480231360DA
:1017B800054B1B68044A23F48013136000BFBD4621
:1017C8005DF8047B704700BF0000024080B500AFA1
:1017D800084B1B68074A43F4007313600A20FFF79D
:1017E800C9FF044B1B68034A23F40073136000BF4E
:1017F80080BD00BF1400024080B582B000AF00BFBA
:101808001D4B1B6803F48063002BF9D000237B6019
:1018180005E07B6801337B600120FFF7ABFF164BC7
:101828001B6803F48063002BF3D17868FEF712FE7F
:101838000DA3D3E90023FEF787FE02460B461046A8
:1018480019460BA3D3E90023FEF77EFE02460B469A
:1018580010461946FFF78AF803463B603B6818466E
:101868000837BD4680BD00BF006F8104C58FA13F0A
:1018780066666666666625401000024080B485B0DC
:1018880000AF78600B46FB701346BB700023FB73F8
:101898007B68002B15D0FB780F2B12D8BB78002B58
:1018A8000FD0BB78032B0CD87B681B68B978FA7803
:1018B800520001FA02F21A437B681A600123FB7393
:1018C80001E00223FB73FB7B18461437BD465DF825
:1018D800047B704780B485B000AF78600B46FB701E
:1018E8001346BB700023FB737B68002B11D0FB7879
:1018F8000F2B0ED8BB78012B0BD87B685B68B978A7
:10190800FA7801FA02F21A437B685A600123FB73E2
:1019180001E00223FB73FB7B18461437BD465DF8D4
:10192800047B704780B485B000AF78600B46FB70CD
:101938001346BB700023FB737B68002B12D0FB7827
:101948000F2B0FD8BB78032B0CD87B689B68B97812
:10195800FA78520001FA02F21A437B689A6001236E
:10196800FB7301E00223FB73FB7B18461437BD466B
:101978005DF8047B704780B485B000AF78600B4693
:10198800FB701346BB700023FB737B68002B12D0DF
:10199800FB780F2B0FD8BB78022B0CD87B68DB6841
:1019A800B978FA78520001FA02F21A437B68DA60D1
:1019B8000123FB7301E00223FB73FB7B18461437FA
:1019C800BD465DF8047B704780B485B000AF786091
:1019D8000B46FB701346BB700023FB737B68002B20
:1019E80027D0FB780F2B24D8BB78012B21D8BB78C4
:1019F800012B0BD17B685B69FA78012101FA02F2AD
:101A08001A437B685A610123FB7314E0BB78002BEF
:101A18000CD17B685B69FA78012101FA02F2D243A2
:101A28001A407B685A610123FB7304E00223FB73AD
:101A380001E00223FB73FB7B18461437BD465DF8B3
:101A4800047B704780B485B000AF78600B46FB70AC
:101A58001346BB700023FB73FB78072B0CD87B68FD
:101A68001B6AB978FA78920001FA02F21A437B6885
:101A78001A620123FB7311E0FB780F2B0CD87B68EB
:101A88005B6AB978FA78920001FA02F21A437B6825
:101A98005A620123FB7301E00323FB73FB7B1846A7
:101AA8001437BD465DF8047B704780B584B000AF3D
:101AB80078600023FB737B68002B43D07B68186831
:101AC8007B6819797B685B791A46FFF7D7FE03466E
:101AD800FB73FB7B012B0AD17B6818687B6819793B
:101AE8007B689B791A46FFF7F5FE0346FB73FB7B81
:101AF800012B0AD17B6818687B6819797B68DB79C8
:101B08001A46FFF70FFF0346FB73FB7B012B0AD135
:101B18007B6818687B6819797B685B7A1A46FFF7D7
:101B28002AFF0346FB73FB7B012B0DD17B681868EA
:101B38007B6819797B681B7A1A46FFF745FF0346CD
:101B4800FB7301E00323FB73FB7B18461037BD468C
:101B580080BD80B584B000AF78600023FB737B68DC
:101B6800002B42D07B6818687B681B7902221946D3
:101B7800FFF784FE0346FB73FB7B012B0AD17B68CE
:101B880018687B6819797B689B791A46FFF7A2FE6B
:101B98000346FB73FB7B012B0AD17B6818687B68C3
:101BA80019797B68DB791A46FFF7BCFE0346FB739D
:101BB800FB7B012B0AD17B6818687B6819797B68E5
:101BC8005B791A46FFF73EFF0346FB73FB7B012B4D
:101BD8000DD17B6818687B6819797B681B7A1A466F
:101BE800FFF7C9FE0346FB7301E00323FB73FB7B8E
:101BF80018461037BD4680BD90B484B000AF034688
:101C0800FB710123FB73FB79542B15D80E4AFB7922
:101C18005B09D8B2034652F82330FA7902F01F0262
:101C2800012101FA02F21446074A0146234342F809
:101C380021300023FB7301E00223FB73FB7B184672
:101C48001037BD4690BC704700E100E090B484B006
:101C580000AF0446084611461A462346FB71034660
:101C6800BB710B467B7113463B710123FB73FB79F8
:101C7800542B41D8BB79042B3ED80023BB73BB79C6
:101C8800042B2ED801A252F823F000BFAF1C000885
:101C9800D91C0008B51C0008C71C0008A91C0008AE
:101CA8003B79BB731DE07B79BB731AE07B799B00A2
:101CB8005AB297F9043013435BB2BB7311E07B79D6
:101CC800DB005AB297F9043013435BB2BB7308E0E8
:101CD8007B795B005AB297F9043013435BB2BB734C
:101CE80000BF0949FB79BA7B1201D2B20B4483F8D1
:101CF80000230023FB7301E00223FB73FB7B1846E0
:101D08001037BD4690BC704700E100E080B485B054
:101D180000AF0346FB710123FB73FB79042B0DD83D
:101D28000B4B0C4A1A60FB791B0243F0BF6343F468
:101D38000033074A13600023FB7301E00223FB739F
:101D4800FB7B18461437BD465DF8047B704700BF1F
:101D58000CED00E00000FA0580B483B000AF012369
:101D6800FB710F4B9B680E4A23F0030393600C4BE7
:101D78001B680B4A43F0010313600023FB71084BF7
:101D88009B6823F47C4323F0F003054A43F0800367
:101D98009360FB7918460C37BD465DF8047B7047A5
:101DA8000038024080B485B000AF03460A46FB7194
:101DB8001346BB710123FB73FB79042B48D8BB790D
:101DC8001F2B45D8FB79032B3ED801A252F823F0EC
:101DD800E91D0008031E00081D1E0008371E000824
:101DE800204B1B6BBA79012101FA02F211461D4AF8
:101DF8000B4313630023FB7329E01A4B5B6BBA791F
:101E0800012101FA02F21146164A0B4353630023DB
:101E1800FB731CE0134B1B6CBA79012101FA02F227
:101E28001146104A0B4313640023FB730FE00D4B5C
:101E38005B6CBA79012101FA02F21146094A0B4397
:101E480053640023FB7302E00323FB7302E001E009
:101E58000323FB73FB7B18461437BD465DF8047BF0
:101E6800704700BF0038024080B582B000AF194B00
:101E78001B68002B2AD00023FB71174B1B78002B03
:101E880016D1164B1B681B0CDBB203F00103FB7168
:101E9800104B1B689847114B1B68104A23F001032D
:101EA80013600E4B00225A600C4B00229A600DE022
:101EB800094B1B78012B09D1084B1B681B0CDBB2A3
:101EC80003F00103FB71034B1B68984700BF0837F9
:101ED800BD4680BDBC000020C000002010E000E02E
:101EE80080B483B000AF0346FB71FB79032B29D87C
:101EF80001A252F823F000BF111F0008231F000899
:101F0800311F00083F1F00084FF080431B684FF047
:101F1800804243F00103136015E00E4B1B680D4A25
:101F280043F0010313600EE00B4B1B680A4A43F0B1
:101F38000103136007E0094B1B68084A43F00103DB
:101F4800136000E000BF00BF0C37BD465DF8047B9E
:101F5800704700BF0004004000080040000C00402B
:101F680080B483B000AF03460A46FB711346BB80BA
:101F7800FB79032B3DD801A252F823F0951F0008E6
:101F8800B31F0008CB1F0008E31F00084FF0804371
:101F980000229A624FF080439B6ABA88013A114640
:101FA8004FF080420B43936224E0154B00229A6263
:101FB800134B9B6ABA88013A1146114A0B43936244
:101FC80018E0104B00229A620E4B9B6ABA88013ABD
:101FD80011460C4A0B4393620CE00B4B00229A62A9
:101FE800094B9B6ABA88013A1146074A0B43936228
:101FF80000E000BF00BF0C37BD465DF8047B7047AA
:102008000004004000080040000C004080B483B089
:1020180000AF0346FB710B46BB7113467B71FB791E
:10202800002B02D0012B47D06FE07B79013B032BBB
:1020380069D801A252F823F051200008BD200008F9
:1020480087200008BD2000084FF080439B694FF0AF
:10205800804223F0730393614FF080439B69BA7900
:10206800120111464FF080420B4393614FF08043B9
:102078001B6A4FF0804243F0010313621BE04FF0EC
:102088008043DB694FF0804223F07303D3614FF044
:102098008043DB69BA79120111464FF080420B4345
:1020A800D3614FF080431B6A4FF0804243F4807342
:1020B800136200E000BF26E07B79013B032B24D8A4
:1020C80001A252F823F000BFE12000080B2100080C
:1020D8000B2100080B2100080F4B9B690E4A23F0C7
:1020E800730393610C4B9B69BA79120111460A4A32
:1020F8000B439361084B1B6A074A43F001031362C1
:1021080000E000BF01E000BF00E000BF00BF0C37E7
:10211800BD465DF8047B70470004004080B483B07E
:1021280000AF03463A60FB710B46BB71FB79002B8D
:1021380002D0012B25D047E0BB79013B032B40D8C7
:1021480001A252F823F000BF612100086B210008AA
:10215800752100087F2100084FF080423B685363D7
:102168000EE04FF080423B68936309E04FF08042F5
:102178003B68D36304E04FF080423B68136400BFC0
:102188001FE0BB79013B032B1DD801A252F823F0B5
:10219800A9210008B1210008B9210008C1210008BF
:1021A8000C4A3B6853630BE00A4A3B68936307E0B9
:1021B800084A3B68D36303E0064A3B68136400BFE0
:1021C80001E000BF00E000BF00BF0C37BD465DF86E
:1021D800047B70470004004080B483B000AF03461E
:1021E8003960FB71FB79032B0FD0032B11DC002B1B
:1021F80002D0012B05D00CE04FF080423B68D3623F
:1022080008E0074A3B68D36204E0064A3B68D362A9
:1022180000E000BF00BF0C37BD465DF8047B704787
:1022280000040040000C004080B586B000AF0346B3
:10223800FB71164A07F1080307CA83E8070007F18C
:1022480008031846FFF785FC40210120FFF788FEA8
:1022580042F20F710120FFF7BFFF01220621012082
:10226800FFF7D4FEFB79642202FB03F37B617B69F1
:10227800013B1A4601210120FFF750FF0120FFF71B
:102288002FFE00BF1837BD4680BD00BF18310008BB
:1022980090B585B000AF786039600023FB733B6868
:1022A800002B00F045817B68002B00F041813B68E2
:1022B8005B78002B02D0012B72D0E1E03B685B68B1
:1022C8001846FEF7C7F84FF000029F4BFEF73CF99F
:1022D80002460B469AA1D1E90001FEF75FFA0246D1
:1022E8000B4610461946FEF741FB0346974AA2FBE8
:1022F80003235B091C013B685B681846FEF7AAF8D4
:102308004FF00002904BFEF71FF902460B468CA1D6
:10231800D1E90001FEF742FA02460B46104619467B
:10232800FEF724FB0246894BA3FB02135B096421D9
:1023380001FB03F3D31A1B013233844AA2FB0323A4
:102348005B0903F0F0031C443B685B681846FEF722
:1023580081F84FF000027C4BFEF7F6F802460B4678
:1023680077A1D1E90001FEF719FA02460B4610469B
:102378001946FEF7FBFA0246744BA3FB02135B09EE
:10238800642101FB03F3D31A1B0132336F4AA2FB0A
:1023980003235B0903F00F03E2187B689A606FE080
:1023A8003B685B681846FEF755F802460B46FDF792
:1023B80015FF02460B4662A1D1E90001FEF7EEF9CE
:1023C80002460B4610461946FEF7D0FA03465F4A06
:1023D800A2FB03235B091C013B685B681846FEF7F8
:1023E80039F802460B46FDF7F9FE02460B4654A1A2
:1023F800D1E90001FEF7D2F902460B46104619460C
:10240800FEF7B4FA0246514BA3FB02135B096421A1
:1024180001FB03F3D31ADB0032334C4AA2FB03233C
:102428005B095B0003F4F8731C443B685B6818465F
:10243800FEF710F802460B46FDF7D0FE02460B46A3
:102448003FA1D1E90001FEF7A9F902460B46104663
:102458001946FEF78BFA02463C4BA3FB02135B09B5
:10246800642101FB03F3D31ADB003233374AA2FBA2
:1024780003235B0903F00703E2187B689A6000BF37
:102488003B685B78DA033B681B7B5B031A433B685A
:102498001B7A1B031A433B685B7A9B021A433B680F
:1024A8009B7A5B0213431A467B68DA603B681B78A9
:1024B800022B14D0022B1FDC002B02D0012B07D0DB
:1024C8001AE07B68DB6843F008027B68DA6013E097
:1024D8007B68DB6843F004027B68DA600CE07B68A9
:1024E800DB6843F008027B68DA607B68DB6843F0EE
:1024F80004027B68DA6000BF3B68DB7A1A033B683A
:102508005B7BDB021A433B68DB7B5B021A433B685D
:102518009B7B9B021A433B681B7C1B0213431A4696
:102528007B681A617B6800221A600123FB7301E053
:102538000223FB73FB7B18461437BD4690BD00BFD2
:102548000000000084D7A741000010401F85EB5110
:1025580080B485B000AF78600023FB737B68002BE4
:1025680008D07B68DB6843F400527B68DA6001239B
:10257800FB7301E00223FB73FB7B18461437BD464F
:102588005DF8047B704780B485B000AF78600B4677
:10259800FB700023FB737B68002B19D000BF7B689E
:1025A8001B6803F08003002BF9D0FA787B685A6027
:1025B80000BF7B681B6803F04003002BF9D07B68E1
:1025C8001B6823F040027B681A600123FB7301E05B
:1025D8000223FB73FB7B18461437BD465DF8047B6A
:1025E800704780B584B000AF786039600023FB7312
:1025F8007B68002B19D03B68002B16D00023BB60EA
:102608000AE03A68BB6813441B7819467868FFF7F4
:10261800BAFFBB680133BB603A68BB6813441B78D8
:10262800002BEED10123FB7301E00223FB73FB7B3C
:1026380018461037BD4680BD80B485B000AF7860BD
:1026480039600023FB737B68002B11D03B68002B9B
:102658000ED000BF7B681B6803F02003002BF9D065
:102668007B685B68DAB23B681A700123FB7301E090
:102678000223FB73FB7B18461437BD465DF8047BC9
:10268800704780B584B000AF786039600023FB7371
:102698007B68002B24D03B68002B21D00023BB7320
:1026A80007F10D0319467868FFF7C6FF0DE0BB7BFD
:1026B8003A6813447A7B1A70BB7B0133BB7307F10A
:1026C8000D0319467868FFF7B7FF7B7B0D2BEED11A
:1026D800BB7B3A68134400221A700123FB7301E0A4
:1026E8000223FB73FB7B18461037BD4680BD80B4C0
:1026F80085B000AF78600B46FB700023FB737B68E6
:10270800002B15D0FB78002B08D0012B0DD17B684E
:10271800DB6843F020027B68DA6006E07B68DB68F0
:1027280023F020027B68DA6000BF0123FB7301E01D
:102738000223FB73FB7B18461437BD465DF8047B08
:102748007047000080B485B000AF78600023FB7349
:102758007B68002B05D0074A7B6813600123FB7355
:1027680001E00223FB73FB7B18461437BD465DF876
:10277800047B7047C400002080B485B000AF786047
:102788000023FB737B68002B05D0074A7B68136026
:102798000123FB7301E00223FB73FB7B184614370C
:1027A800BD465DF8047B7047C800002080B500AFC7
:1027B800034B00221A60034B1B68984700BF80BD7B
:1027C80000100140C400002080B500AF034B002278
:1027D8001A60034B1B68984700BF80BD0044004047
:1027E800C800002080B500AF034B00221A60034BDD
:1027F8001B68984700BF80BD00140140CC00002032
:1028080080B500AFFEF704FAFEF796FA00BF80BD68
:102818000D488546AFF300800C480D490D4A00234A
:1028280002E0D458C4500433C4188C42F9D30A4A7D
:102838000A4C002301E013600432A242FBD300F0EB
:10284800AFF8FFF7DDFFFEE70000012000000020E1
:10285800880000203032000888000020080200208C
:10286800FEE70A22002100F083B80000012B2DE9C1
:10287800F04701D0242B06D900F08CF8162303600A
:102888000020BDE8F087DFF8E4C00D462E4615F8B5
:10289800014B1CF8047017F00807F7D12D2C32D122
:1028A8002C780127B51C002B5BD0102B09D1302CBC
:1028B80007D12C7804F0DF04582C4DD16C78102304
:1028C800023507F1004808F1FF384FF0000EB8FB59
:1028D800F3F9764603FB198AA4F1300CBCF1090F11
:1028E80016D86446A34224DDBEF1FF3F08D0B145A7
:1028F8001CD301D1A24519DB06FB03464FF0010E9C
:1029080015F8014BE8E72B2C04BF2C78B51CCAE757
:10291800A4F1410CBCF1190F01D8373CE2E7A4F14E
:10292800610CBCF1190F04D8573CDBE74FF0FF3EB0
:10293800E6E7BEF1FF3F05D122230360464642B9D0
:1029480030469EE707B17642002AF9D0BEF1000F63
:1029580000D0691E1160F3E73024002BB1D10823A1
:10296800AFE7302CA5D00A23ABE700BF253100081C
:1029780013460A46014602480068FFF777BF00BFC2
:102988008400002002440346934200D1704703F8B4
:10299800011BF9E7014B1868704700BF840000204D
:1029A80070B50D4D0D4C641BA4100026A64209D12C
:1029B8000B4D0C4C00F026F8641BA4100026A64210
:1029C80005D170BD55F8043B98470136EEE755F838
:1029D800043B98470136F2E72832000828320008FD
:1029E800283200082C3200080A44914200F1FF33D3
:1029F80000D1704710B511F8014B03F8014F91420F
:102A0800F9D110BDF8B500BFF8BC08BC9E467047A8
:0C2A1800F8B500BFF8BC08BC9E46704733
:102A2400414343205370656564204C696D6974208B
:102A340049732053657474696E67200D0A000000A1
:102A440041434320496E20477265656E2052616E92
:102A54006765200D0A0000004143432043757272EC
:102A6400656E74205370656564204973203A2000B4
:102A74000D0A000041434320496E20426C756520D5
:102A840052616E6765200D0A000000004E6F2043FE
:102A940068616E676520496E205370656564203AED
:102AA4002000000041434320496E205265642052B7
:102AB400616E6765200D0A0052656163682053707A
:102AC400656564204C696D69740D0A004175746F05
:102AD4006D6174696320456D657267656E63792005
:102AE4004272616B65204973205265616479200DDF
:102AF4000A00000054686569722069732061206EC1
:102B04006577206669726D77617265206F6E2073D8
:102B140065727665720D0A0000000240020700012A
:102B24000000000000000240030700010000000054
:102B340000040240060700010000000000040240F7
:102B440007070001000000005365742041636320FF
:102B54005370656564204C696D6974200D0A00002A
:102B6400546F2053746F702041636320496E204179
:102B74006E792054696D65205072657373207A20D4
:102B84000D0A0000536574204E636320537065651D
:102B940064204C696D6974200D0A0000546F205341
:102BA400746F70204E636320496E20416E79205407
:102BB400696D65205072657373206B200D0A0000E7
:102BC4004E63632049732053746F70706564200DE5
:102BD4000A0000004163632049732053746F7070CE
:102BE4006564200D0A0000004361722057696C6C13
:102BF4002053746F7020466F722055706461746541
:102C0400204669726D776172650D0A004661756CC4
:102C1400742031203A2043617220497320416C7240
:102C240065616479204F6E200D0A00004661756C61
:102C3400742032203A204E434320497320416C7261
:102C44006561647920416374697665200D0A00002A
:102C54004661756C742033203A2041434320497304
:102C640020416C72656164792041637469766520E2
:102C74000D0A00004661756C742034203A204361CB
:102C84007220497320416C7265616479204F6666D5
:102C9400200D0A004661756C742035203A204E439D
:102CA4004320497320416C7265616479204F6666E4
:102CB400200D0A004661756C742036203A20414389
:102CC4004320497320416C7265616479204F6666C4
:102CD400200D0A004661756C742037203A20536534
:102CE4007474696E67205370656564204F75742031
:102CF4004F66205468652052616E6765204F6620D8
:102D0400283120546F2031303029200D0A00000072
:102D14004661756C742038203A204E6F204E6577DA
:102D24002055706461746520466F72205468652074
:102D34004669726D77617265204F6E205468652014
:102D4400536572766572200D0A0000004661756C49
:102D54007420203A20496E76616C6964204F707447
:102D6400696F6E200D0A000043617220696E206451
:102D7400616E6765726F7573207A6F6E6520616C22
:102D84006C2073797374656D73206172652074753A
:102D9400726E6564206F6666200D0A0043617220BE
:102DA400696E2073616665207A6F6E6520796F7530
:102DB4002063616E207475726E206F6E20616E796F
:102DC4002073797374656D20616761696E0D0A0003
:102DD4004E636320497320576F726B696E67204E90
:102DE4006F77200D0A0000002D2D2D2D2D2D2D2D5A
:102DF4002D2D2D2D2D2D2D2D2D2D2D2D2D2D2D2DFF
:102E04002D2D2D2D2D2D2D2D2D2D0D0A7C20202009
:102E14002020204341522044415348424F415244D0
:102E240020444953504C415920202020207C0D0A35
:102E34002D2D2D2D2D2D2D2D2D2D2D2D2D2D2D2DBE
:102E44002D2D2D2D2D2D2D2D2D2D2D2D2D2D2D2DAE
:102E54002D2D0D0A7C2043617220537461747573A7
:102E64003A205B2020204F4646202020205D202051
:102E740020202020207C0D0A7C2043617220537086
:102E8400656564203A205B2020205A45524F20205B
:102E9400205D202020202020207C0D0A7C204E4311
:102EA40043205374617475733A205B2020204F468D
:102EB40046202020205D202020202020207C0D0A78
:102EC4007C20414343205374617475733A205B2022
:102ED40020204F4646202020205D20202020202036
:102EE400207C0D0A2D2D2D2D2D2D2D2D2D2D2D2D0F
:102EF4002D2D2D2D2D2D2D2D2D2D2D2D2D2D2D2DFE
:102F04002D2D2D2D2D2D0D0A000000002D2D2D2DE4
:102F14002D2D2D2D2D2D2D2D2D2D2D2D2D2D2D2DDD
:102F24002D2D2D2D2D2D2D2D2D2D2D2D2D2D0D0A10
:102F34007C202020202020434152204441534842F9
:102F44004F41524420444953504C415920202020A1
:102F5400207C0D0A2D2D2D2D2D2D2D2D2D2D2D2D9E
:102F64002D2D2D2D2D2D2D2D2D2D2D2D2D2D2D2D8D
:102F74002D2D2D2D2D2D0D0A7C205455524E2043E0
:102F84004152204F4E3A205B202020204F20202009
:102F9400205D202020202020207C0D0A2D2D2D2D89
:102FA4002D2D2D2D2D2D2D2D2D2D2D2D2D2D2D2D4D
:102FB4002D2D2D2D2D2D2D2D2D2D2D2D2D2D0D0A80
:102FC400000000002D2D2D2D2D2D2D2D2D2D2D2DE1
:102FD4002D2D2D2D2D2D2D2D2D2D2D2D2D2D2D2D1D
:102FE4002D2D2D2D2D2D0D0A7C2020202020204339
:102FF40041522044415348424F4152442044495392
:10300400504C415920202020207C0D0A2D2D2D2D9F
:103014002D2D2D2D2D2D2D2D2D2D2D2D2D2D2D2DDC
:103024002D2D2D2D2D2D2D2D2D2D2D2D2D0D0A7CC0
:10303400205455524E204E4343204F4E203A2020D8
:1030440020205B202020206E2020205D20202020B6
:103054007C0D0A7C205455524E20414343204F4E50
:10306400203A202020205B20202020612020205D89
:10307400202020207C0D0A7C205455524E204F469F
:1030840046202020203A202020205B20202020736E
:103094002020205D202020207C0D0A7C20545552C5
:1030A4004E204E4343204F46463A202020205B20AA
:1030B4002020206B2020205D202020207C0D0A7CF5
:1030C400205455524E20414343204F46463A202037
:1030D40020205B202020207A2020205D202020201A
:1030E4007C0D0A2D2D2D2D2D2D2D2D2D2D2D2D2D00
:1030F4002D2D2D2D2D2D2D2D2D2D2D2D2D2D2D2DFC
:103104002D2D2D2D2D0D0A0000000240000100017F
:103114000000000000000240060200010000000060
:103124000020202020202020202028282828282093
:10313400202020202020202020202020202020208B
:1031440020881010101010101010101010101010F3
:1031540010040404040404040404041010101010E3
:1031640010104141414141410101010101010101AD
:1031740001010101010101010101010110101010FF
:10318400101042424242424202020202020202027F
:1031940002020202020202020202020210101010D3
:1031A40020000000000000000000000000000000FB
:1031B400000000000000000000000000000000000B
:1031C40000000000000000000000000000000000FB
:1031D40000000000000000000000000000000000EB
:1031E40000000000000000000000000000000000DB
:1031F40000000000000000000000000000000000CB
:1032040000000000000000000000000000000000BA
:1032140000000000000000000000000000000000AA
:0432240000000000A6
:04322800BD010008DC
:04322C0099010008FC
:103230000004024000000000000402400100000001
:103240000200000000C201000000000000000000B9
:1032500000000000020000008025000000000000C7
:10326000000000000000000000000000D00000206E
:1032700038010020A0010020000000000000000034
:10328000000000000000000000000000000000003E
:10329000000000000000000000000000000000002E
:1032A000000000000000000000000000000000001E
:0832B0000000000038000020BE
:0400000508002819AE
:00000001FF
