:020000040800F2
:100000000000012065220008B5220008B522000882
:10001000B5220008B5220008B52200080000000043
:10002000000000000000000000000000B5220008F1
:10003000B522000800000000B52200085D1A000883
:1000400000000000B5220008B5220008B522000813
:10005000B5220008B5220008B5220008B522000824
:10006000B5220008B5220008B5220008B522000814
:10007000B5220008B5220008B5220008B522000804
:10008000B5220008B5220008B522000800000000D3
:10009000000000000000000000000000B522000881
:1000A000B5220008B5220008B5220008B5220008D4
:1000B000B5220008B5220008B5220008B5220008C4
:1000C000B5220008B5220008B5220008B5220008B4
:1000D000B5220008B5220008B52200080000000083
:1000E000B5220008B5220008B52200080000000073
:1000F000000000000000000000000000B522000821
:1001000000000000B5220008B5220008B522000852
:1001100000000000000000000000000000000000DF
:10012000B5220008B5220008B5220008B522000853
:10013000B5220008000000000000000000000000E0
:10014000000000000000000000000000B5220008D0
:10015000B5220008B5220008B5220008B522000823
:10016000B5220008B52200080000000000000000D1
:10017000000000000000000000000000000000007F
:10018000000000000000000000000000000000006F
:04019000B52200088C
:1001980010B5054C237833B9044B13B10448AFF3B9
:1001A80000800123237010BD6C00002000000000B7
:1001B8005824000808B5034B1BB103490348AFF3A3
:1001C800008008BD000000007000002058240008CE
:1001D80081F0004102E000BF83F0004330B54FEAF0
:1001E80041044FEA430594EA050F08BF90EA020F5D
:1001F8001FBF54EA000C55EA020C7FEA645C7FEAF0
:10020800655C00F0E2804FEA5454D4EB5555B8BF12
:100218006D420CDD2C4480EA020281EA030382EA83
:10022800000083EA010180EA020281EA0303362D15
:1002380088BF30BD11F0004F4FEA01314FF4801CE8
:100248004CEA113102D0404261EB410113F0004FFA
:100258004FEA03334CEA133302D0524263EB4303B1
:1002680094EA050F00F0A780A4F10104D5F1200E4F
:100278000DDB02FA0EFC22FA05F2801841F10001AA
:1002880003FA0EF2801843FA05F359410EE0A5F17E
:1002980020050EF1200E012A03FA0EFC28BF4CF0AF
:1002A800020C43FA05F3C01851EBE37101F0004565
:1002B80007D54FF0000EDCF1000C7EEB00006EEB72
:1002C8000101B1F5801F1BD3B1F5001F0CD34908FC
:1002D8005FEA30004FEA3C0C04F101044FEA445253
:1002E80012F5800F80F09A80BCF1004F08BF5FEADA
:1002F800500C50F1000041EB045141EA050130BDBA
:100308005FEA4C0C404141EB0101013C28BFB1F5CB
:10031800801FE9D291F0000F04BF01460020B1FA16
:1003280081F308BF2033A3F10B03B3F120020CDAE9
:100338000C3208DD02F1140CC2F10C0201FA0CF0C7
:1003480021FA02F10CE002F11402D8BFC2F1200C2C
:1003580001FA02F120FA0CFCDCBF41EA0C019040E2
:10036800E41AA2BF01EB0451294330BD6FEA04042B
:100378001F3C1CDA0C340EDC04F11404C4F1200216
:1003880020FA04F001FA02F340EA030021FA04F328
:1003980045EA030130BDC4F10C04C4F1200220FA7F
:1003A80002F001FA04F340EA0300294630BD21FABD
:1003B80004F0294630BD94F0000F83F4801306BF83
:1003C80081F480110134013D4EE77FEA645C18BF77
:1003D8007FEA655C29D094EA050F08BF90EA020F0E
:1003E80005D054EA000C04BF1946104630BD91EA06
:1003F800030F1EBF0021002030BD5FEA545C05D109
:100408004000494128BF41F0004130BD14F5800447
:100418003CBF01F5801130BD01F0004545F0FE41BB
:1004280041F470014FF0000030BD7FEA645C1ABFF0
:10043800194610467FEA655C1CBF0B46024650EA27
:10044800013406BF52EA033591EA030F41F4002153
:1004580030BD00BF90F0000F04BF0021704730B5D9
:100468004FF4806404F132044FF000054FF00001AE
:1004780050E700BF90F0000F04BF0021704730B56F
:100488004FF4806404F1320410F0004548BF404244
:100498004FF000013EE700BF42004FEAE2014FEA99
:1004A80031014FEA02701FBF12F07F4393F07F4F74
:1004B80081F06051704732F07F4208BF704793F077
:1004C8007F4F04BF41F40021704730B54FF460748A
:1004D80001F0004521F000411CE700BF50EA01028D
:1004E80008BF704730B54FF000050AE050EA010236
:1004F80008BF704730B511F0004502D5404261EBA6
:1005080041014FF4806404F132045FEA915C3FF4E6
:10051800D8AE4FF003025FEADC0C18BF03325FEA83
:10052800DC0C18BF033202EBDC02C2F1200300FA34
:1005380003FC20FA02F001FA03FE40EA0E0021FA59
:1005480002F11444BDE600BF70B54FF0FF0C4CF447
:10055800E06C1CEA11541DBF1CEA135594EA0C0FF9
:1005680095EA0C0F00F0DEF82C4481EA030621EA34
:100578004C5123EA4C5350EA013518BF52EA03356F
:1005880041F4801143F4801338D0A0FB02CE4FF021
:100598000005E1FB02E506F00042E0FB03E54FF051
:1005A8000006E1FB03569CF0000F18BF4EF0010E49
:1005B800A4F1FF04B6F5007F64F5407404D25FEA45
:1005C8004E0E6D4146EB060642EAC62141EA5551F8
:1005D8004FEAC52040EA5E504FEACE2EB4F1FD0C3A
:1005E80088BFBCF5E06F1ED8BEF1004F08BF5FEAB8
:1005F800500E50F1000041EB045170BD06F000466A
:1006080046EA010140EA020081EA0301B4EB5C0416
:10061800C2BFD4EB0C0541EA045170BD41F480110E
:100628004FF0000E013C00F3AB8014F1360FDEBF33
:10063800002001F0004170BDC4F10004203C35DA0F
:100648000C341BDC04F11404C4F1200500FA05F392
:1006580020FA04F001FA05F240EA020001F0004233
:1006680021F0004110EBD37021FA04F642EB0601A9
:100678005EEA430E08BF20EAD37070BDC4F10C04D3
:10068800C4F1200500FA04F320FA05F001FA04F297
:1006980040EA020001F0004110EBD37041F1000183
:1006A8005EEA430E08BF20EAD37070BDC4F120058E
:1006B80000FA05F24EEA020E20FA04F301FA05F2F6
:1006C80043EA020321FA04F001F0004121FA04F29E
:1006D80020EA020000EBD3705EEA430E08BF20EA6E
:1006E800D37070BD94F0000F0FD101F000464000A8
:1006F80041EB010111F4801F08BF013CF7D041EA2A
:10070800060195F0000F18BF704703F0004652002D
:1007180043EB030313F4801F08BF013DF7D043EAFE
:100728000603704794EA0C0F0CEA135518BF95EAB4
:100738000C0F0CD050EA410618BF52EA4306D1D13B
:1007480081EA030101F000414FF0000070BD50EA5A
:10075800410606BF1046194652EA430619D094EAE4
:100768000C0F02D150EA013613D195EA0C0F05D1CE
:1007780052EA03361CBF104619460AD181EA030122
:1007880001F0004141F0FE4141F470014FF00000DA
:1007980070BD41F0FE4141F4780170BD70B54FF075
:1007A800FF0C4CF4E06C1CEA11541DBF1CEA1355F5
:1007B80094EA0C0F95EA0C0F00F0A7F8A4EB0504D7
:1007C80081EA030E52EA03354FEA013100F08880CE
:1007D8004FEA03334FF0805545EA131343EA126397
:1007E8004FEA022245EA111545EA10654FEA00264C
:1007F8000EF000419D4208BF964244F1FD0404F505
:10080800407402D25B084FEA3202B61A65EB030560
:100818005B084FEA32024FF480104FF4002CB6EB1D
:10082800020E75EB030E22BFB61A754640EA0C009D
:100838005B084FEA3202B6EB020E75EB030E22BFDD
:10084800B61A754640EA5C005B084FEA3202B6EB1E
:10085800020E75EB030E22BFB61A754640EA9C00DD
:100868005B084FEA3202B6EB020E75EB030E22BFAD
:10087800B61A754640EADC0055EA060E18D04FEA6B
:10088800051545EA16754FEA06164FEAC30343EA0B
:1008980052734FEAC2025FEA1C1CC0D111F4801FD8
:1008A8000BD141EA00014FF000004FF0004CB6E7D1
:1008B80011F4801F04BF01430020B4F1FD0C88BF70
:1008C800BCF5E06F3FF6AFAEB5EB030C04BFB6EB7B
:1008D800020C5FEA500C50F1000041EB045170BD6E
:1008E8000EF0004E4EEA113114EB5C04C2BFD4EB9B
:1008F8000C0541EA045170BD41F480114FF0000E1F
:10090800013C90E645EA060E8DE60CEA135594EA9A
:100918000C0F08BF95EA0C0F3FF43BAF94EA0C0F9D
:100928000AD150EA01347FF434AF95EA0C0F7FF412
:1009380025AF104619462CE795EA0C0F06D152EA66
:1009480003353FF4FDAE1046194622E750EA41064A
:1009580018BF52EA43067FF4C5AE50EA41047FF45B
:100968000DAF52EA43057FF4EBAE12E74A0011D20D
:1009780012F5001211D20DD56FF47873B3EB6252F1
:100988000ED44FEAC12343F0004343EA505323FAFD
:1009980002F070474FF00000704750EA013002D172
:1009A8004FF0FF3070474FF00000704780B500AF40
:1009B80000F0C8FF0021002000F0EAFF002102201B
:1009C80000F0E6FF0121002000F0E2FF04210320EF
:1009D80000F0DEFF02220621012000F07FFC002249
:1009E8000621012000F012FD01220621012000F05D
:1009F8009BFD07220621012000F02CFF022207217F
:100A0800012000F06BFC00220721012000F0FEFC11
:100A180001220721012000F087FD0722072101207C
:100A280000F018FF0549064800F048FA054800F0AC
:100A3800B7FA00F045FC00BF80BD00BF08000020E9
:100A4800001001400000002080B59CB000AF0023DA
:100A580087F86F3097F86F30072BFBD801A252F850
:100A680023F000BF8D0A0008B10A0008150B000822
:100A78005D0A0008030B00087B0B0008910B0008B7
:100A8800D50A0008454800F029FA07F16D03194610
:100A9800424800F0E5FB97F86D30184600F08CF8F6
:100AA800034687F86F3078E03C4800F053FA07F1C6
:100AB8006C031946394800F0D3FB97F86C30184698
:100AC80000F07AF8034687F86F3066E007F16B03A9
:100AD8001946324800F0D4FB97F86B30FF2B03D14E
:100AE800072387F86F3058E097F86B30184600F006
:100AF80063F8034687F86F304FE0294B1B78184698
:100B080000F042F9034687F86F3046E0254923484C
:100B180000F096FB3B1D1946204800F0C1FB3B1D29
:100B2800184601F0C4FB034687F86E303B1D64226B
:100B38000021184601F04CFC97F86E30002B11D0BC
:100B480097F86E30642B0DD897F86E301946164812
:100B580000F08CF91549114800F072FB072387F85B
:100B68006F301AE00E4B07221A70042387F86F3093
:100B780013E00D4800F094F90D49084800F060FBB7
:100B8800012387F86F3008E00A49044800F058FB51
:100B9800012387F86F3000BF5CE75BE70010014076
:100BA8008800002070240008000000208424000829
:100BB800A8240008BC24000880B584B000AF034610
:100BC800FB71FB79613B122B00F2C18001A252F844
:100BD80023F000BF8F0C0008570D0008570D0008C0
:100BE800570D0008570D0008570D0008570D00084D
:100BF800570D0008570D0008570D00081B0D000879
:100C0800570D0008570D0008530C0008290C000860
:100C1800570D0008570D0008570D0008CB0C0008A9
:100C2800554B1B78002B05D1534B01221A70012319
:100C3800FB7392E0504B1B78012B40F08E804F4B9A
:100C480001221A700423FB7387E04D4B1B78002B9D
:100C58000FD1494B1B78012B05D1494B01221A7042
:100C68000223FB737BE0454B04221A700423FB73B9
:100C78007CE0434B1B78012B71D1404B02221A7048
:100C88000423FB736BE03F4B1B78002B0FD13A4BCF
:100C98001B78012B05D13B4B01221A700323FB73F0
:100CA8005FE0364B04221A700423FB735EE0354B79
:100CB8001B78012B55D1314B03221A700423FB7387
:100CC8004FE02D4B1B78012B19D12D4B1B78002B96
:100CD8000FD12C4B1B78002B05D1274B00221A7003
:100CE8000023FB733FE0254B03221A700423FB7398
:100CF80039E0224B02221A700423FB7333E01E4BA7
:100D08001B78002B2FD11D4B04221A700423FB7370
:100D180029E0194B1B78012B0FD1194B1B78012B9C
:100D280005D1174B00221A700523FB731DE0134BE6
:100D380006221A700423FB7317E00F4B1B78002B55
:100D480013D10E4B04221A700423FB730DE02320E9
:100D580000F01AF80346FB7308E000BF06E000BF86
:100D680004E000BF02E000BF00E000BFFB7B1846C4
:100D78001037BD4680BD00BF8900002088000020D4
:100D88008A0000208B00002080B584B000AF0346A5
:100D9800FB71FB79013B062B41D801A252F823F0E5
:100DA800C50D0008D30D0008E10D0008EF0D00087F
:100DB8000B0E0008FD0D0008190E000821492248F5
:100DC80000F03EFA0723FB7337E020491E4800F085
:100DD80037FA0723FB7330E01D491B4800F030FA4F
:100DE8000723FB7329E01B49174800F029FA002361
:100DF800FB7322E01849144800F022FA0723FB731A
:100E08001BE01649104800F01BFA0723FB7314E097
:100E180013490D4800F014FA0223FB730DE0114941
:100E2800094800F00DFA104B1B78012B02D107235B
:100E3800FB7301E00023FB7300BFFB7B18461037F0
:100E4800BD4680BDD024000800100140F0240008F1
:100E580014250008382500085825000878250008BA
:100E680098250008D82500088900002080B582B0A0
:100E780000AF78600B46FB70FB78184600F091F9DC
:100E8800786800F04FF90449044800F0D9F900BF28
:100E98000837BD4680BD00BFF4250008001001409A
:100EA80080B582B000AF7860002000F07AF97868E9
:100EB80000F017F900BF0837BD4680BD80B582B085
:100EC80000AF786039603968786800F09BF9786815
:100ED80000F0A8F900BF0837BD4680BD80B5FAB05C
:100EE80000AF07F5F473A3F5F273186007F5F47310
:100EF800A3F59273154A1846114640F221131A4673
:100F080001F098FA07F5F473A3F5EE73104A184642
:100F18001146B5231A4601F08DFA07F1C40207F508
:100F2800F473A3F5F2731146186800F089F907F114
:100F38000C0207F5F473A3F5F2731146186800F074
:100F48007FF900BF07F5F477BD4680BD0C26000881
:100F58003027000880B5CCB000AF07F59873A3F52B
:100F68009673186007F59873A3F592730B4A1846A1
:100F7800114640F221131A4601F05CFA07F10C02FF
:100F880007F59873A3F596731146186800F058F999
:100F980000BF07F59877BD4680BD00BFE827000869
:100FA80080B584B000AF78607B68002B02D1012344
:100FB800FB7391E07B685B79002B43D17B681878E1
:100FC8007B685B780122194600F088F97B681878FD
:100FD8007B685B780022194600F018FA7B6818785D
:100FE8007B685B780222194600F09EFA7B681878C5
:100FF8007B6859787B681B791A4600F029FB7B6867
:1010080098787B68DB780122194600F067F97B68DD
:1010180098787B68DB780022194600F0F7F97B683E
:1010280098787B68DB780222194600F07DFA7B68A5
:1010380098787B68DB780022194600F009FB0023CA
:10104800FB7349E07B685B79012B43D17B68187897
:101058007B685B780122194600F040F97B681878B4
:101068007B685B780022194600F0D0F97B68187815
:101078007B685B780222194600F056FA7B6818787C
:101088007B685B780022194600F0E2FA7B68987862
:101098007B68DB780122194600F020F97B68987894
:1010A8007B68DB780022194600F0B0F97B689878F5
:1010B8007B68DB780222194600F036FA7B6898785C
:1010C8007B68D9787B681B791A4600F0C1FA00233F
:1010D800FB7301E00123FB73FB7B18461037BD4609
:1010E80080BD80B584B000AF78607B68002B02D1EA
:1010F8000123FB7311E07B6818787B685B7800221A
:10110800194600F0A5FA7B6898787B68DB7800229E
:10111800194600F09DFA0023FB73FB7B1846103735
:10112800BD4680BD80B584B000AF78607B68002B79
:1011380002D10123FB732FE07B685B79002B12D16E
:101148007B6818787B685B780122194600F080FA82
:101158007B6898787B68DB780022194600F078FA7B
:101168000023FB7318E07B685B79012B12D17B6845
:1011780018787B685B780022194600F069FA7B686A
:1011880098787B68DB780122194600F061FA002321
:10119800FB7301E00123FB73FB7B18461037BD4648
:1011A80080BD80B584B000AF0346FB7102220021E8
:1011B800002000F093F801220021002000F04AFBF3
:1011C8004021002000F0C2FC42F20F71002000F024
:1011D800A9FD01220621002000F00EFDFB79642202
:1011E80002FB03F3FB60FB68013B1A460121002068
:1011F80000F060FD002000F069FC00BF18461037C1
:10120800BD4680BD80B584B000AF7860396039686C
:10121800786800F0B1FD0346FB73FB7B1846103776
:10122800BD4680BD80B584B000AF7860786800F0B6
:1012380003FF0346FB73FB7B18461037BD4680BD92
:1012480080B584B000AF786039603968786800F09C
:101258003CFF0346FB73FB7B18461037BD4680BD39
:1012680080B584B000AF786039603968786800F07C
:1012780057FF0346FB73FB7B18461037BD4680BDFE
:1012880080B584B000AF786039603968786800F05C
:101298006DFF0346FB73FB7B18461037BD4680BDC8
:1012A80080B584B000AF786039603968786800F03C
:1012B80097FF0346FB73FB7B18461037BD4680BD7E
:1012C80080B500AF01220921002000F007F80022B4
:1012D8000A21002000F002F800BF80BD80B485B06C
:1012E80000AF0346FB710B46BB7113467B710123AC
:1012F800FB73FB79052B73D8BB790F2B70D87B79DF
:10130800002B6DD07B79032B6AD8FB79052B63D82A
:1013180001A252F823F000BF391300085513000842
:10132800711300088D130008A9130008C5130008DD
:10133800304B1B687979BA79520001FA02F21146EA
:101348002C4A0B4313600023FB7348E02A4B1B68AD
:101358007979BA79520001FA02F21146264A0B430A
:1013680013600023FB733AE0244B1B687979BA7940
:10137800520001FA02F21146204A0B43136000237F
:10138800FB732CE01E4B1B687979BA79520001FA7D
:1013980002F211461A4A0B4313600023FB731EE046
:1013A800184B1B687979BA79520001FA02F2114692
:1013B800144A0B4313600023FB7310E0124B1B68A5
:1013C8007979BA79520001FA02F211460E4A0B43B2
:1013D80013600023FB7302E00223FB7300BF01E0EC
:1013E8000223FB73FB7B18461437BD465DF8047B6C
:1013F800704700BF0000024000040240000802409D
:10140800000C024000100240001C024080B485B06D
:1014180000AF0346FB710B46BB7113467B7101237A
:10142800FB73FB79052B69D8BB790F2B66D87B79C1
:10143800012B63D8FB79052B5CD801A252F823F065
:10144800611400087B14000895140008AF14000804
:10145800C9140008E31400082D4B5B687979BA7940
:1014680001FA02F211462A4A0B4353600023FB7328
:1014780043E0284B5B687979BA7901FA02F21146A0
:10148800244A0B4353600023FB7336E0224B5B680E
:101498007979BA7901FA02F211461F4A0B4353606F
:1014A8000023FB7329E01D4B5B687979BA7901FA4F
:1014B80002F21146194A0B4353600023FB731CE0E8
:1014C800174B5B687979BA7901FA02F21146144A26
:1014D8000B4353600023FB730FE0124B5B68797971
:1014E800BA7901FA02F211460E4A0B4353600023FF
:1014F800FB7302E00223FB7300BF01E00223FB73CE
:10150800FB7B18461437BD465DF8047B704700BF67
:10151800000002400004024000080240000C0240A3
:1015280000100240001C024080B485B000AF0346A2
:10153800FB710B46BB7113467B710123FB73FB796F
:10154800052B6FD8BB790F2B6CD87B79032B69D807
:10155800FB79052B62D801A252F823F07D1500080B
:1015680099150008B5150008D1150008ED150008F3
:1015780009160008304B9B687979BA79520001FA4C
:1015880002F211462C4A0B4393600023FB7348E098
:101598002A4B9B687979BA79520001FA02F211460E
:1015A800264A0B4393600023FB733AE0244B9B6865
:1015B8007979BA79520001FA02F21146204A0B43AE
:1015C80093600023FB732CE01E4B9B687979BA79F2
:1015D800520001FA02F211461A4A0B4393600023A3
:1015E800FB731EE0184B9B687979BA79520001FAAF
:1015F80002F21146144A0B4393600023FB7310E078
:10160800124B9B687979BA79520001FA02F21146B5
:101618000E4A0B4393600023FB7302E00223FB7323
:1016280000BF01E00223FB73FB7B18461437BD465D
:101638005DF8047B704700BF0000024000040240D0
:1016480000080240000C024000100240001C02404A
:1016580080B485B000AF0346FB710B46BB711346DF
:101668007B710123FB73FB79052B00F2DE80BB79CC
:101678000F2B00F2DA807B79012B00F2D6807B7980
:10168800012B62D1FB79052B5CD801A252F823F01B
:10169800B1160008CB160008E5160008FF1600086A
:1016A8001917000833170008644B5B69BA790121E0
:1016B80001FA02F21146614A0B4353610023FB739E
:1016C800B2E05F4B5B69BA79012101FA02F2114677
:1016D8005B4A0B4353610023FB73A5E0594B5B69DD
:1016E800BA79012101FA02F21146564A0B435361B5
:1016F8000023FB7398E0544B5B69BA79012101FA26
:1017080002F21146504A0B4353610023FB738BE0EE
:101718004E4B5B69BA79012101FA02F211464B4A34
:101728000B4353610023FB737EE0494B5B69BA7935
:10173800012101FA02F21146454A0B435361002385
:10174800FB7371E00223FB736EE07B79002B68D199
:10175800FB79052B62D801A252F823F07D17000807
:1017680099170008B5170008D1170008ED170008E9
:1017780009180008314B5B69BA79012101FA02F2B4
:10178800D24311462D4A0B4053610023FB734BE0B3
:101798002B4B5B69BA79012101FA02F2D243114657
:1017A800274A0B4053610023FB733DE0254B5B69DF
:1017B800BA79012101FA02F2D2431146214A0B40BB
:1017C80053610023FB732FE01F4B5B69BA7901213A
:1017D80001FA02F2D24311461B4A0B40536100231F
:1017E800FB7321E0194B5B69BA79012101FA02F216
:1017F800D2431146154A0B4053610023FB7313E093
:10180800134B5B69BA79012101FA02F2D2431146FE
:101818000F4A0B4053610023FB7305E00223FB735F
:1018280002E00223FB7302E001E00223FB73FB7B6F
:1018380018461437BD465DF8047B70470000024027
:101848000004024000080240000C02400010024060
:10185800001C024080B483B000AF0346FB710B4606
:10186800BB7113467B71BB79072B2DD8FB79022BF3
:101878001ED0022B59DC002B02D0012B0CD054E0D7
:101888002D4B1B6A7979BA79920001FA02F2114656
:10189800294A0B43136248E0284B1B6A7979BA79C5
:1018A800920001FA02F21146244A0B4313623CE00B
:1018B800234B1B6A7979BA79920001FA02F2114630
:1018C8001F4A0B43136230E0BB790F2B2DD8FB79ED
:1018D800022B1ED0022B28DC002B02D0012B0CD0AF
:1018E80023E0154B5B6A7979BA79920001FA02F222
:1018F8001146114A0B43536217E0104B5B6A797922
:10190800BA79920001FA02F211460C4A0B4353626B
:101918000BE00B4B5B6A7979BA79920001FA02F213
:101928001146074A0B43536200BF00BF18460C37E5
:10193800BD465DF8047B7047000002400004024089
:101948000008024080B483B000AF0123FB710F4B45
:101958009B680E4A23F0030393600C4B1B680B4AE9
:1019680043F0010313600023FB71084B9B6823F4C9
:101978007C4323F0F003054A43F080039360FB792E
:1019880018460C37BD465DF8047B704700380240A6
:1019980080B485B000AF03460A46FB711346BB719D
:1019A8000123FB73FB79042B48D8BB791F2B45D83F
:1019B800FB79032B3ED801A252F823F0D519000871
:1019C800EF190008091A0008231A0008204B1B6B9E
:1019D800BA79012101FA02F211461D4A0B43136339
:1019E8000023FB7329E01A4B5B6BBA79012101FADA
:1019F80002F21146164A0B4353630023FB731CE0A3
:101A0800134B1B6CBA79012101FA02F21146104AF4
:101A18000B4313640023FB730FE00D4B5B6CBA7927
:101A2800012101FA02F21146094A0B4353640023CB
:101A3800FB7302E00323FB7302E001E00323FB7363
:101A4800FB7B18461437BD465DF8047B704700BF22
:101A58000038024080B582B000AF194B1B68002BDC
:101A68002AD00023FB71174B1B78002B16D1164B7D
:101A78001B681B0CDBB203F00103FB71104B1B68E6
:101A88009847114B1B68104A23F0010313600E4B53
:101A980000225A600C4B00229A600DE0094B1B781B
:101AA800012B09D1084B1B681B0CDBB203F00103A7
:101AB800FB71034B1B68984700BF0837BD4680BDC4
:101AC8008C0000209000002010E000E080B483B07B
:101AD80000AF0346FB71FB79032B29D801A252F80A
:101AE80023F000BFFD1A00080F1B00081D1B00088B
:101AF8002B1B00084FF080431B684FF0804243F0D7
:101B08000103136015E00E4B1B680D4A43F00103F7
:101B180013600EE00B4B1B680A4A43F00103136085
:101B280007E0094B1B68084A43F00103136000E013
:101B380000BF00BF0C37BD465DF8047B704700BF8F
:101B48000004004000080040000C004080B483B04E
:101B580000AF03460A46FB711346BB80FB79032B93
:101B68003DD801A252F823F0811B00089F1B0008F2
:101B7800B71B0008CF1B00084FF0804300229A6271
:101B88004FF080439B6ABA88013A11464FF0804271
:101B98000B43936224E0154B00229A62134B9B6A15
:101BA800BA88013A1146114A0B43936218E0104B68
:101BB80000229A620E4B9B6ABA88013A11460C4A77
:101BC8000B4393620CE00B4B00229A62094B9B6A11
:101BD800BA88013A1146074A0B43936200E000BFF6
:101BE80000BF0C37BD465DF8047B70470004004019
:101BF80000080040000C004080B483B000AF0346EA
:101C0800FB710B46BB7113467B71FB79002B47D1E7
:101C18007B79013B032B45D801A252F823F000BF82
:101C2800391C0008A51C00086F1C0008A51C00082A
:101C38004FF080439B694FF0804223F07303936118
:101C48004FF080439B69BA79120111464FF08042E8
:101C58000B4393614FF080431B6A4FF0804243F07F
:101C6800010313621BE04FF08043DB694FF08042B1
:101C780023F07303D3614FF08043DB69BA79120113
:101C880011464FF080420B43D3614FF080431B6AEB
:101C98004FF0804243F48073136200E000BF01E01C
:101CA80000BF00E000BF00BF0C37BD465DF8047BF5
:101CB800704700BF80B483B000AF03463A60FB7141
:101CC8000B46BB71FB79002B23D1BB79013B032B5E
:101CD80021D801A252F823F0F11C0008FB1C0008CF
:101CE800051D00080F1D00084FF080423B68536334
:101CF8000EE04FF080423B68936309E04FF080426A
:101D08003B68D36304E04FF080423B68136400BF34
:101D180001E000BF00E000BF00BF0C37BD465DF822
:101D2800047B704780B483B000AF03463960FB7111
:101D3800FB79032B0FD0032B11DC002B02D0012BD6
:101D480005D00CE04FF080423B68D36208E0074AB8
:101D58003B68D36204E0064A3B68D36200E000BFF8
:101D680000BF0C37BD465DF8047B70470004004097
:101D7800000C00400000000090B585B000AF78600E
:101D880039600023FB733B68002B00F045817B68BA
:101D9800002B00F041813B685B78002B02D0012BBF
:101DA80072D0E1E03B685B681846FEF753FB4FF0E2
:101DB80000029F4BFEF7C8FB02460B469AA1D1E9E9
:101DC8000001FEF7EBFC02460B4610461946FEF7EB
:101DD800CDFD0346974AA2FB03235B091C013B6820
:101DE8005B681846FEF736FB4FF00002904BFEF793
:101DF800ABFB02460B468CA1D1E90001FEF7CEFCF5
:101E080002460B4610461946FEF7B0FD0246894BBE
:101E1800A3FB02135B09642101FB03F3D31A1B0123
:101E28003233844AA2FB03235B0903F0F0031C440A
:101E38003B685B681846FEF70DFB4FF000027C4BD1
:101E4800FEF782FB02460B4677A1D1E90001FEF7B7
:101E5800A5FC02460B4610461946FEF787FD0246CA
:101E6800744BA3FB02135B09642101FB03F3D31A30
:101E78001B0132336F4AA2FB03235B0903F00F03F4
:101E8800E2187B689A606FE03B685B681846FEF76B
:101E9800E1FA02460B46FEF7A1F902460B4662A19B
:101EA800D1E90001FEF77AFC02460B4610461946B6
:101EB800FEF75CFD03465F4AA2FB03235B091C0196
:101EC8003B685B681846FEF7C5FA02460B46FEF704
:101ED80085F902460B4654A1D1E90001FEF75EFCE4
:101EE80002460B4610461946FEF740FD0246514B86
:101EF800A3FB02135B09642101FB03F3D31ADB0084
:101F080032334C4AA2FB03235B095B0003F4F873EA
:101F18001C443B685B681846FEF79CFA02460B4671
:101F2800FEF75CF902460B463FA1D1E90001FEF736
:101F380035FC02460B4610461946FEF717FD0246C9
:101F48003C4BA3FB02135B09642101FB03F3D31A87
:101F5800DB003233374AA2FB03235B0903F0070394
:101F6800E2187B689A6000BF3B685B78DA033B68DD
:101F78001B7B5B031A433B681B7A1B031A433B68B2
:101F88005B7A9B021A433B689B7A5B0213431A46AF
:101F98007B68DA603B681B78022B14D0022B1FDCAD
:101FA800002B02D0012B07D01AE07B68DB6843F0D6
:101FB80008027B68DA6013E07B68DB6843F00402A0
:101FC8007B68DA600CE07B68DB6843F008027B68BA
:101FD800DA607B68DB6843F004027B68DA6000BF84
:101FE8003B68DB7A1A033B685B7BDB021A433B687E
:101FF800DB7B5B021A433B689B7B9B021A433B6873
:102008001B7C1B0213431A467B681A617B680022FB
:102018001A600123FB7301E00223FB73FB7B184664
:102028001437BD4690BD00BF0000000084D7A7410B
:10203800000010401F85EB5180B485B000AF786078
:102048000023FB737B68002B08D07B68DB6843F4B4
:1020580000527B68DA600123FB7301E00223FB7303
:10206800FB7B18461437BD465DF8047B704780B487
:1020780085B000AF78600B46FB700023FB737B686C
:10208800002B19D000BF7B681B6803F08003002B6E
:10209800F9D0FA787B685A6000BF7B681B6803F048
:1020A8004003002BF9D07B681B6823F040027B6853
:1020B8001A600123FB7301E00223FB73FB7B1846C4
:1020C8001437BD465DF8047B704780B584B000AF17
:1020D800786039600023FB737B68002B19D03B685C
:1020E800002B16D00023BB600AE03A68BB68134493
:1020F8001B7819467868FFF7BAFFBB680133BB60E5
:102108003A68BB6813441B78002BEED10123FB739C
:1021180001E00223FB73FB7B18461037BD4680BDE8
:1021280080B485B000AF786039600023FB737B68AA
:10213800002B11D03B68002B0ED000BF7B681B68BA
:1021480003F02003002BF9D07B685B68DAB23B68A8
:102158001A700123FB7301E00223FB73FB7B184613
:102168001437BD465DF8047B7047000080B485B025
:1021780000AF786039600023FB730023BB607B6885
:10218800002B20D03B68002B1DD002E0BB68013338
:10219800BB607B681B6803F02003002B03D1BB687E
:1021A8000D4A9342F2D9BB680C4A934203D13B686B
:1021B800FF221A7004E07B685B68DAB23B681A7029
:1021C8000123FB7301E00223FB73FB7B18461437E2
:1021D800BD465DF8047B70471FA1070020A10700DA
:1021E80080B584B000AF786039600023FB737B68EA
:1021F800002B24D03B68002B21D00023BB7307F1B0
:102208000D0319467868FFF78BFF0DE0BB7B3A6832
:1022180013447A7B1A70BB7B0133BB7307F10D0340
:1022280019467868FFF77CFF7B7B0D2BEED1BB7BD3
:102238003A68134400221A700123FB7301E0022359
:10224800FB73FB7B18461037BD4680BD80B500AFD9
:10225800FEF7ACFBFEF7F8FB00BF80BD0D488546D6
:10226800AFF300800C480D490D4A002302E0D45812
:10227800C4500433C4188C42F9D30A4A0A4C0023C8
:1022880001E013600432A242FBD300F0AFF8FFF77D
:10229800DDFFFEE700000120000000206C000020A8
:1022A800142A00086C000020CC010020FEE70A2256
:1022B800002100F083B80000012B2DE9F04701D080
:1022C800242B06D900F08CF8162303600020BDE803
:1022D800F087DFF8E4C00D462E4615F8014B1CF8D0
:1022E800047017F00807F7D12D2C32D12C7801276C
:1022F800B51C002B5BD0102B09D1302C07D12C78C2
:1023080004F0DF04582C4DD16C781023023507F106
:10231800004808F1FF384FF0000EB8FBF3F9764695
:1023280003FB198AA4F1300CBCF1090F16D86446D6
:10233800A34224DDBEF1FF3F08D0B1451CD301D133
:10234800A24519DB06FB03464FF0010E15F8014BB9
:10235800E8E72B2C04BF2C78B51CCAE7A4F1410C84
:10236800BCF1190F01D8373CE2E7A4F1610CBCF1CC
:10237800190F04D8573CDBE74FF0FF3EE6E7BEF104
:10238800FF3F05D122230360464642B930469EE707
:1023980007B17642002AF9D0BEF1000F00D0691EBD
:1023A8001160F3E73024002BB1D10823AFE7302CBC
:1023B800A5D00A23ABE700BF0A29000813460A463E
:1023C800014602480068FFF777BF00BF6800002099
:1023D80002440346934200D1704703F8011BF9E712
:1023E800014B1868704700BF6800002070B50D4D9C
:1023F8000D4C641BA4100026A64209D10B4D0C4CB1
:1024080000F026F8641BA4100026A64205D170BD72
:1024180055F8043B98470136EEE755F8043B9847D2
:102428000136F2E70C2A00080C2A00080C2A0008DA
:10243800102A00080A44914200F1FF3300D1704786
:1024480010B511F8014B03F8014F9142F9D110BDB5
:10245800F8B500BFF8BC08BC9E467047F8B500BF89
:08246800F8BC08BC9E46704759
:10247000536574204E6363205370656564200D0AB4
:1024800000000000546F2053746F70204E6363206F
:10249000496E20416E792054696D652050726573D4
:1024A00073206B200D0A00004E6363204973205394
:1024B000746F70706564200D0A0000004163632032
:1024C00049732053746F70706564200D0A0000001A
:1024D0004661756C742031203A2043617220497343
:1024E00020416C7265616479204F6E200D0A0000F6
:1024F0004661756C742032203A204E434320497364
:1025000020416C726561647920416374697665204D
:102510000D0A00004661756C742033203A20414357
:102520004320497320416C72656164792041637472
:10253000697665200D0A00004661756C74203420B0
:102540003A2043617220497320416C72656164795D
:10255000204F6666200D0A004661756C7420352098
:102560003A204E434320497320416C72656164797F
:10257000204F6666200D0A004661756C7420362077
:102580003A2041434320497320416C72656164796C
:10259000204F6666200D0A004661756C7420372056
:1025A0003A2053657420537065656420466F72202D
:1025B0004E6363204F7574204F6620546865205227
:1025C000616E6765204F6620283120546F203130BE
:1025D0003029200D0A0000004661756C7420203AF5
:1025E00020496E76616C6964204F7074696F6E204B
:1025F0000D0A00004E636320497320576F726B69A8
:102600006E67204E6F77200D0A0000002D2D2D2DB6
:102610002D2D2D2D2D2D2D2D2D2D2D2D2D2D2D2DEA
:102620002D2D2D2D2D2D2D2D2D2D2D2D2D2D0D0A1D
:102630007C20202020202043415220444153484206
:102640004F41524420444953504C415920202020AE
:10265000207C0D0A2D2D2D2D2D2D2D2D2D2D2D2DAB
:102660002D2D2D2D2D2D2D2D2D2D2D2D2D2D2D2D9A
:102670002D2D2D2D2D2D0D0A7C204361722053749C
:10268000617475733A205B2020204F46462020203D
:10269000205D202020202020207C0D0A7C2043610A
:1026A00072205370656564203A205B2020205A45D3
:1026B000524F2020205D202020202020207C0D0A49
:1026C0007C204E4343205374617475733A205B2021
:1026D00020204F4646202020205D20202020202042
:1026E000207C0D0A7C204143432053746174757330
:1026F0003A205B2020204F4646202020205D2020CD
:1027000020202020207C0D0A2D2D2D2D2D2D2D2D2E
:102710002D2D2D2D2D2D2D2D2D2D2D2D2D2D2D2DE9
:102720002D2D2D2D2D2D2D2D2D2D0D0A00000000D0
:102730002D2D2D2D2D2D2D2D2D2D2D2D2D2D2D2DC9
:102740002D2D2D2D2D2D2D2D2D2D2D2D2D2D2D2DB9
:102750002D2D0D0A7C202020202020434152204492
:10276000415348424F41524420444953504C4159EF
:1027700020202020207C0D0A2D2D2D2D2D2D2D2DBE
:102780002D2D2D2D2D2D2D2D2D2D2D2D2D2D2D2D79
:102790002D2D2D2D2D2D2D2D2D2D0D0A7C2054551B
:1027A000524E20434152204F4E3A205B20202020A1
:1027B0004F202020205D202020202020207C0D0A7A
:1027C0002D2D2D2D2D2D2D2D2D2D2D2D2D2D2D2D39
:1027D0002D2D2D2D2D2D2D2D2D2D2D2D2D2D2D2D29
:1027E0002D2D0D0A000000002D2D2D2D2D2D2D2D10
:1027F0002D2D2D2D2D2D2D2D2D2D2D2D2D2D2D2D09
:102800002D2D2D2D2D2D2D2D2D2D0D0A7C20202013
:102810002020204341522044415348424F415244DA
:1028200020444953504C415920202020207C0D0A3F
:102830002D2D2D2D2D2D2D2D2D2D2D2D2D2D2D2DC8
:102840002D2D2D2D2D2D2D2D2D2D2D2D2D2D2D2DB8
:102850002D2D0D0A7C205455524E204E4343204FBF
:102860004E3A205B202020206E202020205D20205A
:1028700020202020207C0D0A7C205455524E2041DF
:102880004343204F4E3A205B20202020612020200F
:10289000205D202020202020207C0D0A7C20545503
:1028A000524E204F46462020203A205B20202020F8
:1028B00073202020205D202020202020207C0D0A55
:1028C0007C205455524E204E43434F46463A205B9F
:1028D000202020206B202020205D20202020202070
:1028E000207C0D0A2D2D2D2D2D2D2D2D2D2D2D2D19
:1028F0002D2D2D2D2D2D2D2D2D2D2D2D2D2D2D2D08
:102900002D2D2D2D2D2D0D0A0000202020202020E2
:10291000202020282828282820202020202020208F
:10292000202020202020202020208810101010108F
:1029300010101010101010101010040404040404DF
:1029400004040404101010101010104141414141C2
:102950004101010101010101010101010101010127
:1029600001010101011010101010104242424242B8
:1029700042020202020202020202020202020202F7
:1029800002020202021010101020000000000000DD
:102990000000000000000000000000000000000037
:1029A0000000000000000000000000000000000027
:1029B0000000000000000000000000000000000017
:1029C0000000000000000000000000000000000007
:1029D00000000000000000000000000000000000F7
:1029E00000000000000000000000000000000000E7
:1029F00000000000000000000000000000000000D7
:0C2A0000000000000000000000000000CA
:042A0C00BD01000800
:042A10009901000820
:102A140000030004000000000200000000C20100E6
:102A240000000000000000000000000000000000A2
:102A340094000020FC00002064010020000000003D
:102A44000000000000000000000000000000000082
:102A54000000000000000000000000000000000072
:102A64000000000000000000000000000000000062
:0C2A740000000000000000001C0000201A
:040000050800226568
:00000001FF
